{
	"Market-palce/marketPlaceItem1.sol": {
		"marketPlaceItem1": {
			"abi": [
				{
					"inputs": [],
					"name": "USDCfToken",
					"outputs": [
						{
							"internalType": "contract IERC20",
							"name": "",
							"type": "address"
						}
					],
					"stateMutability": "view",
					"type": "function"
				},
				{
					"inputs": [
						{
							"internalType": "address",
							"name": "",
							"type": "address"
						}
					],
					"name": "alreadyBought",
					"outputs": [
						{
							"internalType": "bool",
							"name": "",
							"type": "bool"
						}
					],
					"stateMutability": "view",
					"type": "function"
				},
				{
					"inputs": [],
					"name": "getCurrentPricceOfETH",
					"outputs": [
						{
							"internalType": "int256",
							"name": "",
							"type": "int256"
						}
					],
					"stateMutability": "view",
					"type": "function"
				},
				{
					"inputs": [],
					"name": "getPriceInETH",
					"outputs": [
						{
							"internalType": "int256",
							"name": "",
							"type": "int256"
						}
					],
					"stateMutability": "view",
					"type": "function"
				},
				{
					"inputs": [],
					"name": "owner",
					"outputs": [
						{
							"internalType": "address",
							"name": "",
							"type": "address"
						}
					],
					"stateMutability": "view",
					"type": "function"
				},
				{
					"inputs": [],
					"name": "payInETH",
					"outputs": [
						{
							"internalType": "bool",
							"name": "",
							"type": "bool"
						}
					],
					"stateMutability": "payable",
					"type": "function"
				},
				{
					"inputs": [],
					"name": "payInUSDCf",
					"outputs": [
						{
							"internalType": "bool",
							"name": "",
							"type": "bool"
						}
					],
					"stateMutability": "nonpayable",
					"type": "function"
				},
				{
					"inputs": [],
					"name": "price",
					"outputs": [
						{
							"internalType": "uint256",
							"name": "",
							"type": "uint256"
						}
					],
					"stateMutability": "view",
					"type": "function"
				}
			],
			"devdoc": {
				"kind": "dev",
				"methods": {},
				"version": 1
			},
			"evm": {
				"assembly": "    /* \"Market-palce/marketPlaceItem1.sol\":294:2206  contract marketPlaceItem1{... */\n  mstore(0x40, 0x80)\n    /* \"Market-palce/marketPlaceItem1.sol\":393:406  10 * (10**18) */\n  0x8ac7230489e80000\n    /* \"Market-palce/marketPlaceItem1.sol\":373:406  uint public price = 10 * (10**18) */\n  0x01\n  sstore\n    /* \"Market-palce/marketPlaceItem1.sol\":483:493  msg.sender */\n  caller\n    /* \"Market-palce/marketPlaceItem1.sol\":452:494  address public owner = payable(msg.sender) */\n  0x02\n  exp(0x0100, 0x00)\n  dup2\n  sload\n  dup2\n  0xffffffffffffffffffffffffffffffffffffffff\n  mul\n  not\n  and\n  swap1\n  dup4\n  0xffffffffffffffffffffffffffffffffffffffff\n  and\n  mul\n  or\n  swap1\n  sstore\n  pop\n    /* \"Market-palce/marketPlaceItem1.sol\":648:690  0xD4a33860578De61DBAbDc8BFdb98FD742fA7028e */\n  0xd4a33860578de61dbabdc8bfdb98fd742fa7028e\n    /* \"Market-palce/marketPlaceItem1.sol\":583:691  AggregatorV3Interface internal priceFeed = AggregatorV3Interface(0xD4a33860578De61DBAbDc8BFdb98FD742fA7028e) */\n  0x03\n  exp(0x0100, 0x00)\n  dup2\n  sload\n  dup2\n  0xffffffffffffffffffffffffffffffffffffffff\n  mul\n  not\n  and\n  swap1\n  dup4\n  0xffffffffffffffffffffffffffffffffffffffff\n  and\n  mul\n  or\n  swap1\n  sstore\n  pop\n    /* \"Market-palce/marketPlaceItem1.sol\":730:772  0xd9145CCE52D386f254917e481eB44e9943F39138 */\n  0xd9145cce52d386f254917e481eb44e9943f39138\n    /* \"Market-palce/marketPlaceItem1.sol\":696:773  IERC20 public USDCfToken = IERC20(0xd9145CCE52D386f254917e481eB44e9943F39138) */\n  0x04\n  exp(0x0100, 0x00)\n  dup2\n  sload\n  dup2\n  0xffffffffffffffffffffffffffffffffffffffff\n  mul\n  not\n  and\n  swap1\n  dup4\n  0xffffffffffffffffffffffffffffffffffffffff\n  and\n  mul\n  or\n  swap1\n  sstore\n  pop\n    /* \"Market-palce/marketPlaceItem1.sol\":294:2206  contract marketPlaceItem1{... */\n  callvalue\n  dup1\n  iszero\n  tag_1\n  jumpi\n  0x00\n  dup1\n  revert\ntag_1:\n  pop\n  dataSize(sub_0)\n  dup1\n  dataOffset(sub_0)\n  0x00\n  codecopy\n  0x00\n  return\nstop\n\nsub_0: assembly {\n        /* \"Market-palce/marketPlaceItem1.sol\":294:2206  contract marketPlaceItem1{... */\n      mstore(0x40, 0x80)\n      jumpi(tag_1, lt(calldatasize, 0x04))\n      shr(0xe0, calldataload(0x00))\n      dup1\n      0x88c35af3\n      gt\n      tag_10\n      jumpi\n      dup1\n      0x88c35af3\n      eq\n      tag_6\n      jumpi\n      dup1\n      0x8da5cb5b\n      eq\n      tag_7\n      jumpi\n      dup1\n      0xa035b1fe\n      eq\n      tag_8\n      jumpi\n      dup1\n      0xb7b638d8\n      eq\n      tag_9\n      jumpi\n      jump(tag_1)\n    tag_10:\n      dup1\n      0x01ca6e08\n      eq\n      tag_2\n      jumpi\n      dup1\n      0x2ba59851\n      eq\n      tag_3\n      jumpi\n      dup1\n      0x3393c64f\n      eq\n      tag_4\n      jumpi\n      dup1\n      0x5b27f2a7\n      eq\n      tag_5\n      jumpi\n    tag_1:\n      0x00\n      dup1\n      revert\n        /* \"Market-palce/marketPlaceItem1.sol\":1644:2147  function payInETH() public payable returns(bool){... */\n    tag_2:\n      tag_11\n      tag_12\n      jump\t// in\n    tag_11:\n      mload(0x40)\n      tag_13\n      swap2\n      swap1\n      tag_14\n      jump\t// in\n    tag_13:\n      mload(0x40)\n      dup1\n      swap2\n      sub\n      swap1\n      return\n        /* \"Market-palce/marketPlaceItem1.sol\":1538:1642  function getPriceInETH() public view  returns(int){... */\n    tag_3:\n      callvalue\n      dup1\n      iszero\n      tag_15\n      jumpi\n      0x00\n      dup1\n      revert\n    tag_15:\n      pop\n      tag_16\n      tag_17\n      jump\t// in\n    tag_16:\n      mload(0x40)\n      tag_18\n      swap2\n      swap1\n      tag_19\n      jump\t// in\n    tag_18:\n      mload(0x40)\n      dup1\n      swap2\n      sub\n      swap1\n      return\n        /* \"Market-palce/marketPlaceItem1.sol\":1345:1536  function getCurrentPricceOfETH() public view returns (int){... */\n    tag_4:\n      callvalue\n      dup1\n      iszero\n      tag_20\n      jumpi\n      0x00\n      dup1\n      revert\n    tag_20:\n      pop\n      tag_21\n      tag_22\n      jump\t// in\n    tag_21:\n      mload(0x40)\n      tag_23\n      swap2\n      swap1\n      tag_19\n      jump\t// in\n    tag_23:\n      mload(0x40)\n      dup1\n      swap2\n      sub\n      swap1\n      return\n        /* \"Market-palce/marketPlaceItem1.sol\":324:370  mapping (address => bool) public alreadyBought */\n    tag_5:\n      callvalue\n      dup1\n      iszero\n      tag_24\n      jumpi\n      0x00\n      dup1\n      revert\n    tag_24:\n      pop\n      tag_25\n      0x04\n      dup1\n      calldatasize\n      sub\n      dup2\n      add\n      swap1\n      tag_26\n      swap2\n      swap1\n      tag_27\n      jump\t// in\n    tag_26:\n      tag_28\n      jump\t// in\n    tag_25:\n      mload(0x40)\n      tag_29\n      swap2\n      swap1\n      tag_14\n      jump\t// in\n    tag_29:\n      mload(0x40)\n      dup1\n      swap2\n      sub\n      swap1\n      return\n        /* \"Market-palce/marketPlaceItem1.sol\":912:1270  function payInUSDCf() public returns(bool){... */\n    tag_6:\n      callvalue\n      dup1\n      iszero\n      tag_30\n      jumpi\n      0x00\n      dup1\n      revert\n    tag_30:\n      pop\n      tag_31\n      tag_32\n      jump\t// in\n    tag_31:\n      mload(0x40)\n      tag_33\n      swap2\n      swap1\n      tag_14\n      jump\t// in\n    tag_33:\n      mload(0x40)\n      dup1\n      swap2\n      sub\n      swap1\n      return\n        /* \"Market-palce/marketPlaceItem1.sol\":452:494  address public owner = payable(msg.sender) */\n    tag_7:\n      callvalue\n      dup1\n      iszero\n      tag_34\n      jumpi\n      0x00\n      dup1\n      revert\n    tag_34:\n      pop\n      tag_35\n      tag_36\n      jump\t// in\n    tag_35:\n      mload(0x40)\n      tag_37\n      swap2\n      swap1\n      tag_38\n      jump\t// in\n    tag_37:\n      mload(0x40)\n      dup1\n      swap2\n      sub\n      swap1\n      return\n        /* \"Market-palce/marketPlaceItem1.sol\":373:406  uint public price = 10 * (10**18) */\n    tag_8:\n      callvalue\n      dup1\n      iszero\n      tag_39\n      jumpi\n      0x00\n      dup1\n      revert\n    tag_39:\n      pop\n      tag_40\n      tag_41\n      jump\t// in\n    tag_40:\n      mload(0x40)\n      tag_42\n      swap2\n      swap1\n      tag_43\n      jump\t// in\n    tag_42:\n      mload(0x40)\n      dup1\n      swap2\n      sub\n      swap1\n      return\n        /* \"Market-palce/marketPlaceItem1.sol\":696:773  IERC20 public USDCfToken = IERC20(0xd9145CCE52D386f254917e481eB44e9943F39138) */\n    tag_9:\n      callvalue\n      dup1\n      iszero\n      tag_44\n      jumpi\n      0x00\n      dup1\n      revert\n    tag_44:\n      pop\n      tag_45\n      tag_46\n      jump\t// in\n    tag_45:\n      mload(0x40)\n      tag_47\n      swap2\n      swap1\n      tag_48\n      jump\t// in\n    tag_47:\n      mload(0x40)\n      dup1\n      swap2\n      sub\n      swap1\n      return\n        /* \"Market-palce/marketPlaceItem1.sol\":1644:2147  function payInETH() public payable returns(bool){... */\n    tag_12:\n        /* \"Market-palce/marketPlaceItem1.sol\":1687:1691  bool */\n      0x00\n        /* \"Market-palce/marketPlaceItem1.sol\":1857:1872  getPriceInETH() */\n      tag_50\n        /* \"Market-palce/marketPlaceItem1.sol\":1857:1870  getPriceInETH */\n      tag_17\n        /* \"Market-palce/marketPlaceItem1.sol\":1857:1872  getPriceInETH() */\n      jump\t// in\n    tag_50:\n        /* \"Market-palce/marketPlaceItem1.sol\":1839:1848  msg.value */\n      callvalue\n        /* \"Market-palce/marketPlaceItem1.sol\":1839:1873  msg.value == uint(getPriceInETH()) */\n      eq\n        /* \"Market-palce/marketPlaceItem1.sol\":1831:1897  require(msg.value == uint(getPriceInETH()), \"Wrong amount of ETH\") */\n      tag_51\n      jumpi\n      mload(0x40)\n      0x08c379a000000000000000000000000000000000000000000000000000000000\n      dup2\n      mstore\n      0x04\n      add\n      tag_52\n      swap1\n      tag_53\n      jump\t// in\n    tag_52:\n      mload(0x40)\n      dup1\n      swap2\n      sub\n      swap1\n      revert\n    tag_51:\n        /* \"Market-palce/marketPlaceItem1.sol\":1905:1914  bool sent */\n      0x00\n        /* \"Market-palce/marketPlaceItem1.sol\":1928:1933  owner */\n      0x02\n      0x00\n      swap1\n      sload\n      swap1\n      0x0100\n      exp\n      swap1\n      div\n      0xffffffffffffffffffffffffffffffffffffffff\n      and\n        /* \"Market-palce/marketPlaceItem1.sol\":1928:1938  owner.call */\n      0xffffffffffffffffffffffffffffffffffffffff\n      and\n        /* \"Market-palce/marketPlaceItem1.sol\":1946:1955  msg.value */\n      callvalue\n        /* \"Market-palce/marketPlaceItem1.sol\":1928:1960  owner.call{value: msg.value}(\"\") */\n      mload(0x40)\n      tag_54\n      swap1\n      tag_55\n      jump\t// in\n    tag_54:\n      0x00\n      mload(0x40)\n      dup1\n      dup4\n      sub\n      dup2\n      dup6\n      dup8\n      gas\n      call\n      swap3\n      pop\n      pop\n      pop\n      returndatasize\n      dup1\n      0x00\n      dup2\n      eq\n      tag_58\n      jumpi\n      mload(0x40)\n      swap2\n      pop\n      and(add(returndatasize, 0x3f), not(0x1f))\n      dup3\n      add\n      0x40\n      mstore\n      returndatasize\n      dup3\n      mstore\n      returndatasize\n      0x00\n      0x20\n      dup5\n      add\n      returndatacopy\n      jump(tag_57)\n    tag_58:\n      0x60\n      swap2\n      pop\n    tag_57:\n      pop\n        /* \"Market-palce/marketPlaceItem1.sol\":1904:1960  (bool sent, /*data*/) = owner.call{value: msg.value}(\"\") */\n      pop\n      swap1\n      pop\n        /* \"Market-palce/marketPlaceItem1.sol\":1983:1987  true */\n      0x01\n        /* \"Market-palce/marketPlaceItem1.sol\":1975:1987  sent == true */\n      iszero\n      iszero\n        /* \"Market-palce/marketPlaceItem1.sol\":1975:1979  sent */\n      dup2\n        /* \"Market-palce/marketPlaceItem1.sol\":1975:1987  sent == true */\n      iszero\n      iszero\n      eq\n        /* \"Market-palce/marketPlaceItem1.sol\":1967:2010  require(sent == true, \"Failed to send ETH\") */\n      tag_59\n      jumpi\n      mload(0x40)\n      0x08c379a000000000000000000000000000000000000000000000000000000000\n      dup2\n      mstore\n      0x04\n      add\n      tag_60\n      swap1\n      tag_61\n      jump\t// in\n    tag_60:\n      mload(0x40)\n      dup1\n      swap2\n      sub\n      swap1\n      revert\n    tag_59:\n        /* \"Market-palce/marketPlaceItem1.sol\":2047:2051  true */\n      0x01\n        /* \"Market-palce/marketPlaceItem1.sol\":2019:2032  alreadyBought */\n      0x00\n        /* \"Market-palce/marketPlaceItem1.sol\":2019:2044  alreadyBought[msg.sender] */\n      dup1\n        /* \"Market-palce/marketPlaceItem1.sol\":2033:2043  msg.sender */\n      caller\n        /* \"Market-palce/marketPlaceItem1.sol\":2019:2044  alreadyBought[msg.sender] */\n      0xffffffffffffffffffffffffffffffffffffffff\n      and\n      0xffffffffffffffffffffffffffffffffffffffff\n      and\n      dup2\n      mstore\n      0x20\n      add\n      swap1\n      dup2\n      mstore\n      0x20\n      add\n      0x00\n      keccak256\n      0x00\n        /* \"Market-palce/marketPlaceItem1.sol\":2019:2051  alreadyBought[msg.sender] = true */\n      0x0100\n      exp\n      dup2\n      sload\n      dup2\n      0xff\n      mul\n      not\n      and\n      swap1\n      dup4\n      iszero\n      iszero\n      mul\n      or\n      swap1\n      sstore\n      pop\n        /* \"Market-palce/marketPlaceItem1.sol\":2118:2131  alreadyBought */\n      0x00\n        /* \"Market-palce/marketPlaceItem1.sol\":2118:2143  alreadyBought[msg.sender] */\n      dup1\n        /* \"Market-palce/marketPlaceItem1.sol\":2132:2142  msg.sender */\n      caller\n        /* \"Market-palce/marketPlaceItem1.sol\":2118:2143  alreadyBought[msg.sender] */\n      0xffffffffffffffffffffffffffffffffffffffff\n      and\n      0xffffffffffffffffffffffffffffffffffffffff\n      and\n      dup2\n      mstore\n      0x20\n      add\n      swap1\n      dup2\n      mstore\n      0x20\n      add\n      0x00\n      keccak256\n      0x00\n      swap1\n      sload\n      swap1\n      0x0100\n      exp\n      swap1\n      div\n      0xff\n      and\n        /* \"Market-palce/marketPlaceItem1.sol\":2111:2143  return alreadyBought[msg.sender] */\n      swap2\n      pop\n      pop\n        /* \"Market-palce/marketPlaceItem1.sol\":1644:2147  function payInETH() public payable returns(bool){... */\n      swap1\n      jump\t// out\n        /* \"Market-palce/marketPlaceItem1.sol\":1538:1642  function getPriceInETH() public view  returns(int){... */\n    tag_17:\n        /* \"Market-palce/marketPlaceItem1.sol\":1584:1587  int */\n      0x00\n        /* \"Market-palce/marketPlaceItem1.sol\":1615:1638  getCurrentPricceOfETH() */\n      tag_63\n        /* \"Market-palce/marketPlaceItem1.sol\":1615:1636  getCurrentPricceOfETH */\n      tag_22\n        /* \"Market-palce/marketPlaceItem1.sol\":1615:1638  getCurrentPricceOfETH() */\n      jump\t// in\n    tag_63:\n        /* \"Market-palce/marketPlaceItem1.sol\":1606:1611  price */\n      sload(0x01)\n        /* \"Market-palce/marketPlaceItem1.sol\":1602:1638  int(price) / getCurrentPricceOfETH() */\n      tag_64\n      swap2\n      swap1\n      tag_65\n      jump\t// in\n    tag_64:\n        /* \"Market-palce/marketPlaceItem1.sol\":1595:1638  return int(price) / getCurrentPricceOfETH() */\n      swap1\n      pop\n        /* \"Market-palce/marketPlaceItem1.sol\":1538:1642  function getPriceInETH() public view  returns(int){... */\n      swap1\n      jump\t// out\n        /* \"Market-palce/marketPlaceItem1.sol\":1345:1536  function getCurrentPricceOfETH() public view returns (int){... */\n    tag_22:\n        /* \"Market-palce/marketPlaceItem1.sol\":1399:1402  int */\n      0x00\n        /* \"Market-palce/marketPlaceItem1.sol\":1422:1436  int priceOfUSD */\n      dup1\n        /* \"Market-palce/marketPlaceItem1.sol\":1473:1482  priceFeed */\n      0x03\n      0x00\n      swap1\n      sload\n      swap1\n      0x0100\n      exp\n      swap1\n      div\n      0xffffffffffffffffffffffffffffffffffffffff\n      and\n        /* \"Market-palce/marketPlaceItem1.sol\":1473:1498  priceFeed.latestRoundData */\n      0xffffffffffffffffffffffffffffffffffffffff\n      and\n      0xfeaf968c\n        /* \"Market-palce/marketPlaceItem1.sol\":1473:1500  priceFeed.latestRoundData() */\n      mload(0x40)\n      dup2\n      0xffffffff\n      and\n      0xe0\n      shl\n      dup2\n      mstore\n      0x04\n      add\n      0xa0\n      mload(0x40)\n      dup1\n      dup4\n      sub\n      dup2\n      dup7\n      gas\n      staticcall\n      iszero\n      dup1\n      iszero\n      tag_68\n      jumpi\n      returndatasize\n      0x00\n      dup1\n      returndatacopy\n      revert(0x00, returndatasize)\n    tag_68:\n      pop\n      pop\n      pop\n      pop\n      mload(0x40)\n      returndatasize\n      not(0x1f)\n      0x1f\n      dup3\n      add\n      and\n      dup3\n      add\n      dup1\n      0x40\n      mstore\n      pop\n      dup2\n      add\n      swap1\n      tag_69\n      swap2\n      swap1\n      tag_70\n      jump\t// in\n    tag_69:\n        /* \"Market-palce/marketPlaceItem1.sol\":1410:1500  (/*data1*/, int priceOfUSD, /*data2*/, /*data3*/, /*data4*/) = priceFeed.latestRoundData() */\n      pop\n      pop\n      pop\n      swap2\n      pop\n      pop\n        /* \"Market-palce/marketPlaceItem1.sol\":1527:1532  10**8 */\n      0x05f5e100\n        /* \"Market-palce/marketPlaceItem1.sol\":1514:1524  priceOfUSD */\n      dup2\n        /* \"Market-palce/marketPlaceItem1.sol\":1514:1532  priceOfUSD / 10**8 */\n      tag_71\n      swap2\n      swap1\n      tag_65\n      jump\t// in\n    tag_71:\n        /* \"Market-palce/marketPlaceItem1.sol\":1507:1532  return priceOfUSD / 10**8 */\n      swap2\n      pop\n      pop\n        /* \"Market-palce/marketPlaceItem1.sol\":1345:1536  function getCurrentPricceOfETH() public view returns (int){... */\n      swap1\n      jump\t// out\n        /* \"Market-palce/marketPlaceItem1.sol\":324:370  mapping (address => bool) public alreadyBought */\n    tag_28:\n      mstore(0x20, 0x00)\n      dup1\n      0x00\n      mstore\n      keccak256(0x00, 0x40)\n      0x00\n      swap2\n      pop\n      sload\n      swap1\n      0x0100\n      exp\n      swap1\n      div\n      0xff\n      and\n      dup2\n      jump\t// out\n        /* \"Market-palce/marketPlaceItem1.sol\":912:1270  function payInUSDCf() public returns(bool){... */\n    tag_32:\n        /* \"Market-palce/marketPlaceItem1.sol\":949:953  bool */\n      0x00\n        /* \"Market-palce/marketPlaceItem1.sol\":999:1004  false */\n      dup1\n        /* \"Market-palce/marketPlaceItem1.sol\":969:1004  alreadyBought[msg.sender] ==  false */\n      iszero\n      iszero\n        /* \"Market-palce/marketPlaceItem1.sol\":969:982  alreadyBought */\n      0x00\n        /* \"Market-palce/marketPlaceItem1.sol\":969:994  alreadyBought[msg.sender] */\n      dup1\n        /* \"Market-palce/marketPlaceItem1.sol\":983:993  msg.sender */\n      caller\n        /* \"Market-palce/marketPlaceItem1.sol\":969:994  alreadyBought[msg.sender] */\n      0xffffffffffffffffffffffffffffffffffffffff\n      and\n      0xffffffffffffffffffffffffffffffffffffffff\n      and\n      dup2\n      mstore\n      0x20\n      add\n      swap1\n      dup2\n      mstore\n      0x20\n      add\n      0x00\n      keccak256\n      0x00\n      swap1\n      sload\n      swap1\n      0x0100\n      exp\n      swap1\n      div\n      0xff\n      and\n        /* \"Market-palce/marketPlaceItem1.sol\":969:1004  alreadyBought[msg.sender] ==  false */\n      iszero\n      iszero\n      eq\n        /* \"Market-palce/marketPlaceItem1.sol\":961:1036  require(alreadyBought[msg.sender] ==  false, \"You alreay bought this item\") */\n      tag_73\n      jumpi\n      mload(0x40)\n      0x08c379a000000000000000000000000000000000000000000000000000000000\n      dup2\n      mstore\n      0x04\n      add\n      tag_74\n      swap1\n      tag_75\n      jump\t// in\n    tag_74:\n      mload(0x40)\n      dup1\n      swap2\n      sub\n      swap1\n      revert\n    tag_73:\n        /* \"Market-palce/marketPlaceItem1.sol\":1084:1094  USDCfToken */\n      0x04\n      0x00\n      swap1\n      sload\n      swap1\n      0x0100\n      exp\n      swap1\n      div\n      0xffffffffffffffffffffffffffffffffffffffff\n      and\n        /* \"Market-palce/marketPlaceItem1.sol\":1084:1107  USDCfToken.transferFrom */\n      0xffffffffffffffffffffffffffffffffffffffff\n      and\n      0x23b872dd\n        /* \"Market-palce/marketPlaceItem1.sol\":1108:1118  msg.sender */\n      caller\n        /* \"Market-palce/marketPlaceItem1.sol\":1120:1125  owner */\n      0x02\n      0x00\n      swap1\n      sload\n      swap1\n      0x0100\n      exp\n      swap1\n      div\n      0xffffffffffffffffffffffffffffffffffffffff\n      and\n        /* \"Market-palce/marketPlaceItem1.sol\":1127:1132  price */\n      sload(0x01)\n        /* \"Market-palce/marketPlaceItem1.sol\":1084:1133  USDCfToken.transferFrom(msg.sender, owner, price) */\n      mload(0x40)\n      dup5\n      0xffffffff\n      and\n      0xe0\n      shl\n      dup2\n      mstore\n      0x04\n      add\n      tag_76\n      swap4\n      swap3\n      swap2\n      swap1\n      tag_77\n      jump\t// in\n    tag_76:\n      0x20\n      mload(0x40)\n      dup1\n      dup4\n      sub\n      dup2\n      0x00\n      dup8\n      gas\n      call\n      iszero\n      dup1\n      iszero\n      tag_79\n      jumpi\n      returndatasize\n      0x00\n      dup1\n      returndatacopy\n      revert(0x00, returndatasize)\n    tag_79:\n      pop\n      pop\n      pop\n      pop\n      mload(0x40)\n      returndatasize\n      not(0x1f)\n      0x1f\n      dup3\n      add\n      and\n      dup3\n      add\n      dup1\n      0x40\n      mstore\n      pop\n      dup2\n      add\n      swap1\n      tag_80\n      swap2\n      swap1\n      tag_81\n      jump\t// in\n    tag_80:\n      pop\n        /* \"Market-palce/marketPlaceItem1.sol\":1170:1174  true */\n      0x01\n        /* \"Market-palce/marketPlaceItem1.sol\":1142:1155  alreadyBought */\n      0x00\n        /* \"Market-palce/marketPlaceItem1.sol\":1142:1167  alreadyBought[msg.sender] */\n      dup1\n        /* \"Market-palce/marketPlaceItem1.sol\":1156:1166  msg.sender */\n      caller\n        /* \"Market-palce/marketPlaceItem1.sol\":1142:1167  alreadyBought[msg.sender] */\n      0xffffffffffffffffffffffffffffffffffffffff\n      and\n      0xffffffffffffffffffffffffffffffffffffffff\n      and\n      dup2\n      mstore\n      0x20\n      add\n      swap1\n      dup2\n      mstore\n      0x20\n      add\n      0x00\n      keccak256\n      0x00\n        /* \"Market-palce/marketPlaceItem1.sol\":1142:1174  alreadyBought[msg.sender] = true */\n      0x0100\n      exp\n      dup2\n      sload\n      dup2\n      0xff\n      mul\n      not\n      and\n      swap1\n      dup4\n      iszero\n      iszero\n      mul\n      or\n      swap1\n      sstore\n      pop\n        /* \"Market-palce/marketPlaceItem1.sol\":1241:1254  alreadyBought */\n      0x00\n        /* \"Market-palce/marketPlaceItem1.sol\":1241:1266  alreadyBought[msg.sender] */\n      dup1\n        /* \"Market-palce/marketPlaceItem1.sol\":1255:1265  msg.sender */\n      caller\n        /* \"Market-palce/marketPlaceItem1.sol\":1241:1266  alreadyBought[msg.sender] */\n      0xffffffffffffffffffffffffffffffffffffffff\n      and\n      0xffffffffffffffffffffffffffffffffffffffff\n      and\n      dup2\n      mstore\n      0x20\n      add\n      swap1\n      dup2\n      mstore\n      0x20\n      add\n      0x00\n      keccak256\n      0x00\n      swap1\n      sload\n      swap1\n      0x0100\n      exp\n      swap1\n      div\n      0xff\n      and\n        /* \"Market-palce/marketPlaceItem1.sol\":1234:1266  return alreadyBought[msg.sender] */\n      swap1\n      pop\n        /* \"Market-palce/marketPlaceItem1.sol\":912:1270  function payInUSDCf() public returns(bool){... */\n      swap1\n      jump\t// out\n        /* \"Market-palce/marketPlaceItem1.sol\":452:494  address public owner = payable(msg.sender) */\n    tag_36:\n      0x02\n      0x00\n      swap1\n      sload\n      swap1\n      0x0100\n      exp\n      swap1\n      div\n      0xffffffffffffffffffffffffffffffffffffffff\n      and\n      dup2\n      jump\t// out\n        /* \"Market-palce/marketPlaceItem1.sol\":373:406  uint public price = 10 * (10**18) */\n    tag_41:\n      sload(0x01)\n      dup2\n      jump\t// out\n        /* \"Market-palce/marketPlaceItem1.sol\":696:773  IERC20 public USDCfToken = IERC20(0xd9145CCE52D386f254917e481eB44e9943F39138) */\n    tag_46:\n      0x04\n      0x00\n      swap1\n      sload\n      swap1\n      0x0100\n      exp\n      swap1\n      div\n      0xffffffffffffffffffffffffffffffffffffffff\n      and\n      dup2\n      jump\t// out\n        /* \"#utility.yul\":7:97   */\n    tag_82:\n        /* \"#utility.yul\":41:48   */\n      0x00\n        /* \"#utility.yul\":84:89   */\n      dup2\n        /* \"#utility.yul\":77:90   */\n      iszero\n        /* \"#utility.yul\":70:91   */\n      iszero\n        /* \"#utility.yul\":59:91   */\n      swap1\n      pop\n        /* \"#utility.yul\":7:97   */\n      swap2\n      swap1\n      pop\n      jump\t// out\n        /* \"#utility.yul\":103:212   */\n    tag_83:\n        /* \"#utility.yul\":184:205   */\n      tag_125\n        /* \"#utility.yul\":199:204   */\n      dup2\n        /* \"#utility.yul\":184:205   */\n      tag_82\n      jump\t// in\n    tag_125:\n        /* \"#utility.yul\":179:182   */\n      dup3\n        /* \"#utility.yul\":172:206   */\n      mstore\n        /* \"#utility.yul\":103:212   */\n      pop\n      pop\n      jump\t// out\n        /* \"#utility.yul\":218:428   */\n    tag_14:\n        /* \"#utility.yul\":305:309   */\n      0x00\n        /* \"#utility.yul\":343:345   */\n      0x20\n        /* \"#utility.yul\":332:341   */\n      dup3\n        /* \"#utility.yul\":328:346   */\n      add\n        /* \"#utility.yul\":320:346   */\n      swap1\n      pop\n        /* \"#utility.yul\":356:421   */\n      tag_127\n        /* \"#utility.yul\":418:419   */\n      0x00\n        /* \"#utility.yul\":407:416   */\n      dup4\n        /* \"#utility.yul\":403:420   */\n      add\n        /* \"#utility.yul\":394:400   */\n      dup5\n        /* \"#utility.yul\":356:421   */\n      tag_83\n      jump\t// in\n    tag_127:\n        /* \"#utility.yul\":218:428   */\n      swap3\n      swap2\n      pop\n      pop\n      jump\t// out\n        /* \"#utility.yul\":434:510   */\n    tag_84:\n        /* \"#utility.yul\":470:477   */\n      0x00\n        /* \"#utility.yul\":499:504   */\n      dup2\n        /* \"#utility.yul\":488:504   */\n      swap1\n      pop\n        /* \"#utility.yul\":434:510   */\n      swap2\n      swap1\n      pop\n      jump\t// out\n        /* \"#utility.yul\":516:631   */\n    tag_85:\n        /* \"#utility.yul\":601:624   */\n      tag_130\n        /* \"#utility.yul\":618:623   */\n      dup2\n        /* \"#utility.yul\":601:624   */\n      tag_84\n      jump\t// in\n    tag_130:\n        /* \"#utility.yul\":596:599   */\n      dup3\n        /* \"#utility.yul\":589:625   */\n      mstore\n        /* \"#utility.yul\":516:631   */\n      pop\n      pop\n      jump\t// out\n        /* \"#utility.yul\":637:855   */\n    tag_19:\n        /* \"#utility.yul\":728:732   */\n      0x00\n        /* \"#utility.yul\":766:768   */\n      0x20\n        /* \"#utility.yul\":755:764   */\n      dup3\n        /* \"#utility.yul\":751:769   */\n      add\n        /* \"#utility.yul\":743:769   */\n      swap1\n      pop\n        /* \"#utility.yul\":779:848   */\n      tag_132\n        /* \"#utility.yul\":845:846   */\n      0x00\n        /* \"#utility.yul\":834:843   */\n      dup4\n        /* \"#utility.yul\":830:847   */\n      add\n        /* \"#utility.yul\":821:827   */\n      dup5\n        /* \"#utility.yul\":779:848   */\n      tag_85\n      jump\t// in\n    tag_132:\n        /* \"#utility.yul\":637:855   */\n      swap3\n      swap2\n      pop\n      pop\n      jump\t// out\n        /* \"#utility.yul\":942:1059   */\n    tag_87:\n        /* \"#utility.yul\":1051:1052   */\n      0x00\n        /* \"#utility.yul\":1048:1049   */\n      dup1\n        /* \"#utility.yul\":1041:1053   */\n      revert\n        /* \"#utility.yul\":1188:1314   */\n    tag_89:\n        /* \"#utility.yul\":1225:1232   */\n      0x00\n        /* \"#utility.yul\":1265:1307   */\n      0xffffffffffffffffffffffffffffffffffffffff\n        /* \"#utility.yul\":1258:1263   */\n      dup3\n        /* \"#utility.yul\":1254:1308   */\n      and\n        /* \"#utility.yul\":1243:1308   */\n      swap1\n      pop\n        /* \"#utility.yul\":1188:1314   */\n      swap2\n      swap1\n      pop\n      jump\t// out\n        /* \"#utility.yul\":1320:1416   */\n    tag_90:\n        /* \"#utility.yul\":1357:1364   */\n      0x00\n        /* \"#utility.yul\":1386:1410   */\n      tag_138\n        /* \"#utility.yul\":1404:1409   */\n      dup3\n        /* \"#utility.yul\":1386:1410   */\n      tag_89\n      jump\t// in\n    tag_138:\n        /* \"#utility.yul\":1375:1410   */\n      swap1\n      pop\n        /* \"#utility.yul\":1320:1416   */\n      swap2\n      swap1\n      pop\n      jump\t// out\n        /* \"#utility.yul\":1422:1544   */\n    tag_91:\n        /* \"#utility.yul\":1495:1519   */\n      tag_140\n        /* \"#utility.yul\":1513:1518   */\n      dup2\n        /* \"#utility.yul\":1495:1519   */\n      tag_90\n      jump\t// in\n    tag_140:\n        /* \"#utility.yul\":1488:1493   */\n      dup2\n        /* \"#utility.yul\":1485:1520   */\n      eq\n        /* \"#utility.yul\":1475:1538   */\n      tag_141\n      jumpi\n        /* \"#utility.yul\":1534:1535   */\n      0x00\n        /* \"#utility.yul\":1531:1532   */\n      dup1\n        /* \"#utility.yul\":1524:1536   */\n      revert\n        /* \"#utility.yul\":1475:1538   */\n    tag_141:\n        /* \"#utility.yul\":1422:1544   */\n      pop\n      jump\t// out\n        /* \"#utility.yul\":1550:1689   */\n    tag_92:\n        /* \"#utility.yul\":1596:1601   */\n      0x00\n        /* \"#utility.yul\":1634:1640   */\n      dup2\n        /* \"#utility.yul\":1621:1641   */\n      calldataload\n        /* \"#utility.yul\":1612:1641   */\n      swap1\n      pop\n        /* \"#utility.yul\":1650:1683   */\n      tag_143\n        /* \"#utility.yul\":1677:1682   */\n      dup2\n        /* \"#utility.yul\":1650:1683   */\n      tag_91\n      jump\t// in\n    tag_143:\n        /* \"#utility.yul\":1550:1689   */\n      swap3\n      swap2\n      pop\n      pop\n      jump\t// out\n        /* \"#utility.yul\":1695:2024   */\n    tag_27:\n        /* \"#utility.yul\":1754:1760   */\n      0x00\n        /* \"#utility.yul\":1803:1805   */\n      0x20\n        /* \"#utility.yul\":1791:1800   */\n      dup3\n        /* \"#utility.yul\":1782:1789   */\n      dup5\n        /* \"#utility.yul\":1778:1801   */\n      sub\n        /* \"#utility.yul\":1774:1806   */\n      slt\n        /* \"#utility.yul\":1771:1890   */\n      iszero\n      tag_145\n      jumpi\n        /* \"#utility.yul\":1809:1888   */\n      tag_146\n      tag_87\n      jump\t// in\n    tag_146:\n        /* \"#utility.yul\":1771:1890   */\n    tag_145:\n        /* \"#utility.yul\":1929:1930   */\n      0x00\n        /* \"#utility.yul\":1954:2007   */\n      tag_147\n        /* \"#utility.yul\":1999:2006   */\n      dup5\n        /* \"#utility.yul\":1990:1996   */\n      dup3\n        /* \"#utility.yul\":1979:1988   */\n      dup6\n        /* \"#utility.yul\":1975:1997   */\n      add\n        /* \"#utility.yul\":1954:2007   */\n      tag_92\n      jump\t// in\n    tag_147:\n        /* \"#utility.yul\":1944:2007   */\n      swap2\n      pop\n        /* \"#utility.yul\":1900:2017   */\n      pop\n        /* \"#utility.yul\":1695:2024   */\n      swap3\n      swap2\n      pop\n      pop\n      jump\t// out\n        /* \"#utility.yul\":2030:2148   */\n    tag_93:\n        /* \"#utility.yul\":2117:2141   */\n      tag_149\n        /* \"#utility.yul\":2135:2140   */\n      dup2\n        /* \"#utility.yul\":2117:2141   */\n      tag_90\n      jump\t// in\n    tag_149:\n        /* \"#utility.yul\":2112:2115   */\n      dup3\n        /* \"#utility.yul\":2105:2142   */\n      mstore\n        /* \"#utility.yul\":2030:2148   */\n      pop\n      pop\n      jump\t// out\n        /* \"#utility.yul\":2154:2376   */\n    tag_38:\n        /* \"#utility.yul\":2247:2251   */\n      0x00\n        /* \"#utility.yul\":2285:2287   */\n      0x20\n        /* \"#utility.yul\":2274:2283   */\n      dup3\n        /* \"#utility.yul\":2270:2288   */\n      add\n        /* \"#utility.yul\":2262:2288   */\n      swap1\n      pop\n        /* \"#utility.yul\":2298:2369   */\n      tag_151\n        /* \"#utility.yul\":2366:2367   */\n      0x00\n        /* \"#utility.yul\":2355:2364   */\n      dup4\n        /* \"#utility.yul\":2351:2368   */\n      add\n        /* \"#utility.yul\":2342:2348   */\n      dup5\n        /* \"#utility.yul\":2298:2369   */\n      tag_93\n      jump\t// in\n    tag_151:\n        /* \"#utility.yul\":2154:2376   */\n      swap3\n      swap2\n      pop\n      pop\n      jump\t// out\n        /* \"#utility.yul\":2382:2459   */\n    tag_94:\n        /* \"#utility.yul\":2419:2426   */\n      0x00\n        /* \"#utility.yul\":2448:2453   */\n      dup2\n        /* \"#utility.yul\":2437:2453   */\n      swap1\n      pop\n        /* \"#utility.yul\":2382:2459   */\n      swap2\n      swap1\n      pop\n      jump\t// out\n        /* \"#utility.yul\":2465:2583   */\n    tag_95:\n        /* \"#utility.yul\":2552:2576   */\n      tag_154\n        /* \"#utility.yul\":2570:2575   */\n      dup2\n        /* \"#utility.yul\":2552:2576   */\n      tag_94\n      jump\t// in\n    tag_154:\n        /* \"#utility.yul\":2547:2550   */\n      dup3\n        /* \"#utility.yul\":2540:2577   */\n      mstore\n        /* \"#utility.yul\":2465:2583   */\n      pop\n      pop\n      jump\t// out\n        /* \"#utility.yul\":2589:2811   */\n    tag_43:\n        /* \"#utility.yul\":2682:2686   */\n      0x00\n        /* \"#utility.yul\":2720:2722   */\n      0x20\n        /* \"#utility.yul\":2709:2718   */\n      dup3\n        /* \"#utility.yul\":2705:2723   */\n      add\n        /* \"#utility.yul\":2697:2723   */\n      swap1\n      pop\n        /* \"#utility.yul\":2733:2804   */\n      tag_156\n        /* \"#utility.yul\":2801:2802   */\n      0x00\n        /* \"#utility.yul\":2790:2799   */\n      dup4\n        /* \"#utility.yul\":2786:2803   */\n      add\n        /* \"#utility.yul\":2777:2783   */\n      dup5\n        /* \"#utility.yul\":2733:2804   */\n      tag_95\n      jump\t// in\n    tag_156:\n        /* \"#utility.yul\":2589:2811   */\n      swap3\n      swap2\n      pop\n      pop\n      jump\t// out\n        /* \"#utility.yul\":2817:2877   */\n    tag_96:\n        /* \"#utility.yul\":2845:2848   */\n      0x00\n        /* \"#utility.yul\":2866:2871   */\n      dup2\n        /* \"#utility.yul\":2859:2871   */\n      swap1\n      pop\n        /* \"#utility.yul\":2817:2877   */\n      swap2\n      swap1\n      pop\n      jump\t// out\n        /* \"#utility.yul\":2883:3025   */\n    tag_97:\n        /* \"#utility.yul\":2933:2942   */\n      0x00\n        /* \"#utility.yul\":2966:3019   */\n      tag_159\n        /* \"#utility.yul\":2984:3018   */\n      tag_160\n        /* \"#utility.yul\":2993:3017   */\n      tag_161\n        /* \"#utility.yul\":3011:3016   */\n      dup5\n        /* \"#utility.yul\":2993:3017   */\n      tag_89\n      jump\t// in\n    tag_161:\n        /* \"#utility.yul\":2984:3018   */\n      tag_96\n      jump\t// in\n    tag_160:\n        /* \"#utility.yul\":2966:3019   */\n      tag_89\n      jump\t// in\n    tag_159:\n        /* \"#utility.yul\":2953:3019   */\n      swap1\n      pop\n        /* \"#utility.yul\":2883:3025   */\n      swap2\n      swap1\n      pop\n      jump\t// out\n        /* \"#utility.yul\":3031:3157   */\n    tag_98:\n        /* \"#utility.yul\":3081:3090   */\n      0x00\n        /* \"#utility.yul\":3114:3151   */\n      tag_163\n        /* \"#utility.yul\":3145:3150   */\n      dup3\n        /* \"#utility.yul\":3114:3151   */\n      tag_97\n      jump\t// in\n    tag_163:\n        /* \"#utility.yul\":3101:3151   */\n      swap1\n      pop\n        /* \"#utility.yul\":3031:3157   */\n      swap2\n      swap1\n      pop\n      jump\t// out\n        /* \"#utility.yul\":3163:3303   */\n    tag_99:\n        /* \"#utility.yul\":3227:3236   */\n      0x00\n        /* \"#utility.yul\":3260:3297   */\n      tag_165\n        /* \"#utility.yul\":3291:3296   */\n      dup3\n        /* \"#utility.yul\":3260:3297   */\n      tag_98\n      jump\t// in\n    tag_165:\n        /* \"#utility.yul\":3247:3297   */\n      swap1\n      pop\n        /* \"#utility.yul\":3163:3303   */\n      swap2\n      swap1\n      pop\n      jump\t// out\n        /* \"#utility.yul\":3309:3468   */\n    tag_100:\n        /* \"#utility.yul\":3410:3461   */\n      tag_167\n        /* \"#utility.yul\":3455:3460   */\n      dup2\n        /* \"#utility.yul\":3410:3461   */\n      tag_99\n      jump\t// in\n    tag_167:\n        /* \"#utility.yul\":3405:3408   */\n      dup3\n        /* \"#utility.yul\":3398:3462   */\n      mstore\n        /* \"#utility.yul\":3309:3468   */\n      pop\n      pop\n      jump\t// out\n        /* \"#utility.yul\":3474:3724   */\n    tag_48:\n        /* \"#utility.yul\":3581:3585   */\n      0x00\n        /* \"#utility.yul\":3619:3621   */\n      0x20\n        /* \"#utility.yul\":3608:3617   */\n      dup3\n        /* \"#utility.yul\":3604:3622   */\n      add\n        /* \"#utility.yul\":3596:3622   */\n      swap1\n      pop\n        /* \"#utility.yul\":3632:3717   */\n      tag_169\n        /* \"#utility.yul\":3714:3715   */\n      0x00\n        /* \"#utility.yul\":3703:3712   */\n      dup4\n        /* \"#utility.yul\":3699:3716   */\n      add\n        /* \"#utility.yul\":3690:3696   */\n      dup5\n        /* \"#utility.yul\":3632:3717   */\n      tag_100\n      jump\t// in\n    tag_169:\n        /* \"#utility.yul\":3474:3724   */\n      swap3\n      swap2\n      pop\n      pop\n      jump\t// out\n        /* \"#utility.yul\":3730:3899   */\n    tag_101:\n        /* \"#utility.yul\":3814:3825   */\n      0x00\n        /* \"#utility.yul\":3848:3854   */\n      dup3\n        /* \"#utility.yul\":3843:3846   */\n      dup3\n        /* \"#utility.yul\":3836:3855   */\n      mstore\n        /* \"#utility.yul\":3888:3892   */\n      0x20\n        /* \"#utility.yul\":3883:3886   */\n      dup3\n        /* \"#utility.yul\":3879:3893   */\n      add\n        /* \"#utility.yul\":3864:3893   */\n      swap1\n      pop\n        /* \"#utility.yul\":3730:3899   */\n      swap3\n      swap2\n      pop\n      pop\n      jump\t// out\n        /* \"#utility.yul\":3905:4074   */\n    tag_102:\n        /* \"#utility.yul\":4045:4066   */\n      0x57726f6e6720616d6f756e74206f662045544800000000000000000000000000\n        /* \"#utility.yul\":4041:4042   */\n      0x00\n        /* \"#utility.yul\":4033:4039   */\n      dup3\n        /* \"#utility.yul\":4029:4043   */\n      add\n        /* \"#utility.yul\":4022:4067   */\n      mstore\n        /* \"#utility.yul\":3905:4074   */\n      pop\n      jump\t// out\n        /* \"#utility.yul\":4080:4446   */\n    tag_103:\n        /* \"#utility.yul\":4222:4225   */\n      0x00\n        /* \"#utility.yul\":4243:4310   */\n      tag_173\n        /* \"#utility.yul\":4307:4309   */\n      0x13\n        /* \"#utility.yul\":4302:4305   */\n      dup4\n        /* \"#utility.yul\":4243:4310   */\n      tag_101\n      jump\t// in\n    tag_173:\n        /* \"#utility.yul\":4236:4310   */\n      swap2\n      pop\n        /* \"#utility.yul\":4319:4412   */\n      tag_174\n        /* \"#utility.yul\":4408:4411   */\n      dup3\n        /* \"#utility.yul\":4319:4412   */\n      tag_102\n      jump\t// in\n    tag_174:\n        /* \"#utility.yul\":4437:4439   */\n      0x20\n        /* \"#utility.yul\":4432:4435   */\n      dup3\n        /* \"#utility.yul\":4428:4440   */\n      add\n        /* \"#utility.yul\":4421:4440   */\n      swap1\n      pop\n        /* \"#utility.yul\":4080:4446   */\n      swap2\n      swap1\n      pop\n      jump\t// out\n        /* \"#utility.yul\":4452:4871   */\n    tag_53:\n        /* \"#utility.yul\":4618:4622   */\n      0x00\n        /* \"#utility.yul\":4656:4658   */\n      0x20\n        /* \"#utility.yul\":4645:4654   */\n      dup3\n        /* \"#utility.yul\":4641:4659   */\n      add\n        /* \"#utility.yul\":4633:4659   */\n      swap1\n      pop\n        /* \"#utility.yul\":4705:4714   */\n      dup2\n        /* \"#utility.yul\":4699:4703   */\n      dup2\n        /* \"#utility.yul\":4695:4715   */\n      sub\n        /* \"#utility.yul\":4691:4692   */\n      0x00\n        /* \"#utility.yul\":4680:4689   */\n      dup4\n        /* \"#utility.yul\":4676:4693   */\n      add\n        /* \"#utility.yul\":4669:4716   */\n      mstore\n        /* \"#utility.yul\":4733:4864   */\n      tag_176\n        /* \"#utility.yul\":4859:4863   */\n      dup2\n        /* \"#utility.yul\":4733:4864   */\n      tag_103\n      jump\t// in\n    tag_176:\n        /* \"#utility.yul\":4725:4864   */\n      swap1\n      pop\n        /* \"#utility.yul\":4452:4871   */\n      swap2\n      swap1\n      pop\n      jump\t// out\n        /* \"#utility.yul\":4877:5024   */\n    tag_104:\n        /* \"#utility.yul\":4978:4989   */\n      0x00\n        /* \"#utility.yul\":5015:5018   */\n      dup2\n        /* \"#utility.yul\":5000:5018   */\n      swap1\n      pop\n        /* \"#utility.yul\":4877:5024   */\n      swap3\n      swap2\n      pop\n      pop\n      jump\t// out\n        /* \"#utility.yul\":5030:5144   */\n    tag_105:\n      pop\n      jump\t// out\n        /* \"#utility.yul\":5150:5548   */\n    tag_106:\n        /* \"#utility.yul\":5309:5312   */\n      0x00\n        /* \"#utility.yul\":5330:5413   */\n      tag_180\n        /* \"#utility.yul\":5411:5412   */\n      0x00\n        /* \"#utility.yul\":5406:5409   */\n      dup4\n        /* \"#utility.yul\":5330:5413   */\n      tag_104\n      jump\t// in\n    tag_180:\n        /* \"#utility.yul\":5323:5413   */\n      swap2\n      pop\n        /* \"#utility.yul\":5422:5515   */\n      tag_181\n        /* \"#utility.yul\":5511:5514   */\n      dup3\n        /* \"#utility.yul\":5422:5515   */\n      tag_105\n      jump\t// in\n    tag_181:\n        /* \"#utility.yul\":5540:5541   */\n      0x00\n        /* \"#utility.yul\":5535:5538   */\n      dup3\n        /* \"#utility.yul\":5531:5542   */\n      add\n        /* \"#utility.yul\":5524:5542   */\n      swap1\n      pop\n        /* \"#utility.yul\":5150:5548   */\n      swap2\n      swap1\n      pop\n      jump\t// out\n        /* \"#utility.yul\":5554:5933   */\n    tag_55:\n        /* \"#utility.yul\":5738:5741   */\n      0x00\n        /* \"#utility.yul\":5760:5907   */\n      tag_183\n        /* \"#utility.yul\":5903:5906   */\n      dup3\n        /* \"#utility.yul\":5760:5907   */\n      tag_106\n      jump\t// in\n    tag_183:\n        /* \"#utility.yul\":5753:5907   */\n      swap2\n      pop\n        /* \"#utility.yul\":5924:5927   */\n      dup2\n        /* \"#utility.yul\":5917:5927   */\n      swap1\n      pop\n        /* \"#utility.yul\":5554:5933   */\n      swap2\n      swap1\n      pop\n      jump\t// out\n        /* \"#utility.yul\":5939:6107   */\n    tag_107:\n        /* \"#utility.yul\":6079:6099   */\n      0x4661696c656420746f2073656e64204554480000000000000000000000000000\n        /* \"#utility.yul\":6075:6076   */\n      0x00\n        /* \"#utility.yul\":6067:6073   */\n      dup3\n        /* \"#utility.yul\":6063:6077   */\n      add\n        /* \"#utility.yul\":6056:6100   */\n      mstore\n        /* \"#utility.yul\":5939:6107   */\n      pop\n      jump\t// out\n        /* \"#utility.yul\":6113:6479   */\n    tag_108:\n        /* \"#utility.yul\":6255:6258   */\n      0x00\n        /* \"#utility.yul\":6276:6343   */\n      tag_186\n        /* \"#utility.yul\":6340:6342   */\n      0x12\n        /* \"#utility.yul\":6335:6338   */\n      dup4\n        /* \"#utility.yul\":6276:6343   */\n      tag_101\n      jump\t// in\n    tag_186:\n        /* \"#utility.yul\":6269:6343   */\n      swap2\n      pop\n        /* \"#utility.yul\":6352:6445   */\n      tag_187\n        /* \"#utility.yul\":6441:6444   */\n      dup3\n        /* \"#utility.yul\":6352:6445   */\n      tag_107\n      jump\t// in\n    tag_187:\n        /* \"#utility.yul\":6470:6472   */\n      0x20\n        /* \"#utility.yul\":6465:6468   */\n      dup3\n        /* \"#utility.yul\":6461:6473   */\n      add\n        /* \"#utility.yul\":6454:6473   */\n      swap1\n      pop\n        /* \"#utility.yul\":6113:6479   */\n      swap2\n      swap1\n      pop\n      jump\t// out\n        /* \"#utility.yul\":6485:6904   */\n    tag_61:\n        /* \"#utility.yul\":6651:6655   */\n      0x00\n        /* \"#utility.yul\":6689:6691   */\n      0x20\n        /* \"#utility.yul\":6678:6687   */\n      dup3\n        /* \"#utility.yul\":6674:6692   */\n      add\n        /* \"#utility.yul\":6666:6692   */\n      swap1\n      pop\n        /* \"#utility.yul\":6738:6747   */\n      dup2\n        /* \"#utility.yul\":6732:6736   */\n      dup2\n        /* \"#utility.yul\":6728:6748   */\n      sub\n        /* \"#utility.yul\":6724:6725   */\n      0x00\n        /* \"#utility.yul\":6713:6722   */\n      dup4\n        /* \"#utility.yul\":6709:6726   */\n      add\n        /* \"#utility.yul\":6702:6749   */\n      mstore\n        /* \"#utility.yul\":6766:6897   */\n      tag_189\n        /* \"#utility.yul\":6892:6896   */\n      dup2\n        /* \"#utility.yul\":6766:6897   */\n      tag_108\n      jump\t// in\n    tag_189:\n        /* \"#utility.yul\":6758:6897   */\n      swap1\n      pop\n        /* \"#utility.yul\":6485:6904   */\n      swap2\n      swap1\n      pop\n      jump\t// out\n        /* \"#utility.yul\":6910:7090   */\n    tag_109:\n        /* \"#utility.yul\":6958:7035   */\n      0x4e487b7100000000000000000000000000000000000000000000000000000000\n        /* \"#utility.yul\":6955:6956   */\n      0x00\n        /* \"#utility.yul\":6948:7036   */\n      mstore\n        /* \"#utility.yul\":7055:7059   */\n      0x12\n        /* \"#utility.yul\":7052:7053   */\n      0x04\n        /* \"#utility.yul\":7045:7060   */\n      mstore\n        /* \"#utility.yul\":7079:7083   */\n      0x24\n        /* \"#utility.yul\":7076:7077   */\n      0x00\n        /* \"#utility.yul\":7069:7084   */\n      revert\n        /* \"#utility.yul\":7096:7276   */\n    tag_110:\n        /* \"#utility.yul\":7144:7221   */\n      0x4e487b7100000000000000000000000000000000000000000000000000000000\n        /* \"#utility.yul\":7141:7142   */\n      0x00\n        /* \"#utility.yul\":7134:7222   */\n      mstore\n        /* \"#utility.yul\":7241:7245   */\n      0x11\n        /* \"#utility.yul\":7238:7239   */\n      0x04\n        /* \"#utility.yul\":7231:7246   */\n      mstore\n        /* \"#utility.yul\":7265:7269   */\n      0x24\n        /* \"#utility.yul\":7262:7263   */\n      0x00\n        /* \"#utility.yul\":7255:7270   */\n      revert\n        /* \"#utility.yul\":7282:7667   */\n    tag_65:\n        /* \"#utility.yul\":7321:7322   */\n      0x00\n        /* \"#utility.yul\":7338:7357   */\n      tag_193\n        /* \"#utility.yul\":7355:7356   */\n      dup3\n        /* \"#utility.yul\":7338:7357   */\n      tag_84\n      jump\t// in\n    tag_193:\n        /* \"#utility.yul\":7333:7357   */\n      swap2\n      pop\n        /* \"#utility.yul\":7371:7390   */\n      tag_194\n        /* \"#utility.yul\":7388:7389   */\n      dup4\n        /* \"#utility.yul\":7371:7390   */\n      tag_84\n      jump\t// in\n    tag_194:\n        /* \"#utility.yul\":7366:7390   */\n      swap3\n      pop\n        /* \"#utility.yul\":7409:7410   */\n      dup3\n        /* \"#utility.yul\":7399:7434   */\n      tag_195\n      jumpi\n        /* \"#utility.yul\":7414:7432   */\n      tag_196\n      tag_109\n      jump\t// in\n    tag_196:\n        /* \"#utility.yul\":7399:7434   */\n    tag_195:\n        /* \"#utility.yul\":7600:7601   */\n      0x01\n        /* \"#utility.yul\":7597:7598   */\n      0x00\n        /* \"#utility.yul\":7593:7602   */\n      sub\n        /* \"#utility.yul\":7590:7591   */\n      dup4\n        /* \"#utility.yul\":7587:7603   */\n      eq\n        /* \"#utility.yul\":7506:7572   */\n      0x8000000000000000000000000000000000000000000000000000000000000000\n        /* \"#utility.yul\":7503:7504   */\n      dup4\n        /* \"#utility.yul\":7500:7573   */\n      eq\n        /* \"#utility.yul\":7483:7613   */\n      and\n        /* \"#utility.yul\":7480:7636   */\n      iszero\n      tag_197\n      jumpi\n        /* \"#utility.yul\":7616:7634   */\n      tag_198\n      tag_110\n      jump\t// in\n    tag_198:\n        /* \"#utility.yul\":7480:7636   */\n    tag_197:\n        /* \"#utility.yul\":7659:7660   */\n      dup3\n        /* \"#utility.yul\":7656:7657   */\n      dup3\n        /* \"#utility.yul\":7651:7661   */\n      sdiv\n        /* \"#utility.yul\":7646:7661   */\n      swap1\n      pop\n        /* \"#utility.yul\":7282:7667   */\n      swap3\n      swap2\n      pop\n      pop\n      jump\t// out\n        /* \"#utility.yul\":7673:7778   */\n    tag_111:\n        /* \"#utility.yul\":7709:7716   */\n      0x00\n        /* \"#utility.yul\":7749:7771   */\n      0xffffffffffffffffffff\n        /* \"#utility.yul\":7742:7747   */\n      dup3\n        /* \"#utility.yul\":7738:7772   */\n      and\n        /* \"#utility.yul\":7727:7772   */\n      swap1\n      pop\n        /* \"#utility.yul\":7673:7778   */\n      swap2\n      swap1\n      pop\n      jump\t// out\n        /* \"#utility.yul\":7784:7904   */\n    tag_112:\n        /* \"#utility.yul\":7856:7879   */\n      tag_201\n        /* \"#utility.yul\":7873:7878   */\n      dup2\n        /* \"#utility.yul\":7856:7879   */\n      tag_111\n      jump\t// in\n    tag_201:\n        /* \"#utility.yul\":7849:7854   */\n      dup2\n        /* \"#utility.yul\":7846:7880   */\n      eq\n        /* \"#utility.yul\":7836:7898   */\n      tag_202\n      jumpi\n        /* \"#utility.yul\":7894:7895   */\n      0x00\n        /* \"#utility.yul\":7891:7892   */\n      dup1\n        /* \"#utility.yul\":7884:7896   */\n      revert\n        /* \"#utility.yul\":7836:7898   */\n    tag_202:\n        /* \"#utility.yul\":7784:7904   */\n      pop\n      jump\t// out\n        /* \"#utility.yul\":7910:8051   */\n    tag_113:\n        /* \"#utility.yul\":7966:7971   */\n      0x00\n        /* \"#utility.yul\":7997:8003   */\n      dup2\n        /* \"#utility.yul\":7991:8004   */\n      mload\n        /* \"#utility.yul\":7982:8004   */\n      swap1\n      pop\n        /* \"#utility.yul\":8013:8045   */\n      tag_204\n        /* \"#utility.yul\":8039:8044   */\n      dup2\n        /* \"#utility.yul\":8013:8045   */\n      tag_112\n      jump\t// in\n    tag_204:\n        /* \"#utility.yul\":7910:8051   */\n      swap3\n      swap2\n      pop\n      pop\n      jump\t// out\n        /* \"#utility.yul\":8057:8177   */\n    tag_114:\n        /* \"#utility.yul\":8129:8152   */\n      tag_206\n        /* \"#utility.yul\":8146:8151   */\n      dup2\n        /* \"#utility.yul\":8129:8152   */\n      tag_84\n      jump\t// in\n    tag_206:\n        /* \"#utility.yul\":8122:8127   */\n      dup2\n        /* \"#utility.yul\":8119:8153   */\n      eq\n        /* \"#utility.yul\":8109:8171   */\n      tag_207\n      jumpi\n        /* \"#utility.yul\":8167:8168   */\n      0x00\n        /* \"#utility.yul\":8164:8165   */\n      dup1\n        /* \"#utility.yul\":8157:8169   */\n      revert\n        /* \"#utility.yul\":8109:8171   */\n    tag_207:\n        /* \"#utility.yul\":8057:8177   */\n      pop\n      jump\t// out\n        /* \"#utility.yul\":8183:8324   */\n    tag_115:\n        /* \"#utility.yul\":8239:8244   */\n      0x00\n        /* \"#utility.yul\":8270:8276   */\n      dup2\n        /* \"#utility.yul\":8264:8277   */\n      mload\n        /* \"#utility.yul\":8255:8277   */\n      swap1\n      pop\n        /* \"#utility.yul\":8286:8318   */\n      tag_209\n        /* \"#utility.yul\":8312:8317   */\n      dup2\n        /* \"#utility.yul\":8286:8318   */\n      tag_114\n      jump\t// in\n    tag_209:\n        /* \"#utility.yul\":8183:8324   */\n      swap3\n      swap2\n      pop\n      pop\n      jump\t// out\n        /* \"#utility.yul\":8330:8452   */\n    tag_116:\n        /* \"#utility.yul\":8403:8427   */\n      tag_211\n        /* \"#utility.yul\":8421:8426   */\n      dup2\n        /* \"#utility.yul\":8403:8427   */\n      tag_94\n      jump\t// in\n    tag_211:\n        /* \"#utility.yul\":8396:8401   */\n      dup2\n        /* \"#utility.yul\":8393:8428   */\n      eq\n        /* \"#utility.yul\":8383:8446   */\n      tag_212\n      jumpi\n        /* \"#utility.yul\":8442:8443   */\n      0x00\n        /* \"#utility.yul\":8439:8440   */\n      dup1\n        /* \"#utility.yul\":8432:8444   */\n      revert\n        /* \"#utility.yul\":8383:8446   */\n    tag_212:\n        /* \"#utility.yul\":8330:8452   */\n      pop\n      jump\t// out\n        /* \"#utility.yul\":8458:8601   */\n    tag_117:\n        /* \"#utility.yul\":8515:8520   */\n      0x00\n        /* \"#utility.yul\":8546:8552   */\n      dup2\n        /* \"#utility.yul\":8540:8553   */\n      mload\n        /* \"#utility.yul\":8531:8553   */\n      swap1\n      pop\n        /* \"#utility.yul\":8562:8595   */\n      tag_214\n        /* \"#utility.yul\":8589:8594   */\n      dup2\n        /* \"#utility.yul\":8562:8595   */\n      tag_116\n      jump\t// in\n    tag_214:\n        /* \"#utility.yul\":8458:8601   */\n      swap3\n      swap2\n      pop\n      pop\n      jump\t// out\n        /* \"#utility.yul\":8607:9578   */\n    tag_70:\n        /* \"#utility.yul\":8710:8716   */\n      0x00\n        /* \"#utility.yul\":8718:8724   */\n      dup1\n        /* \"#utility.yul\":8726:8732   */\n      0x00\n        /* \"#utility.yul\":8734:8740   */\n      dup1\n        /* \"#utility.yul\":8742:8748   */\n      0x00\n        /* \"#utility.yul\":8791:8794   */\n      0xa0\n        /* \"#utility.yul\":8779:8788   */\n      dup7\n        /* \"#utility.yul\":8770:8777   */\n      dup9\n        /* \"#utility.yul\":8766:8789   */\n      sub\n        /* \"#utility.yul\":8762:8795   */\n      slt\n        /* \"#utility.yul\":8759:8879   */\n      iszero\n      tag_216\n      jumpi\n        /* \"#utility.yul\":8798:8877   */\n      tag_217\n      tag_87\n      jump\t// in\n    tag_217:\n        /* \"#utility.yul\":8759:8879   */\n    tag_216:\n        /* \"#utility.yul\":8918:8919   */\n      0x00\n        /* \"#utility.yul\":8943:9006   */\n      tag_218\n        /* \"#utility.yul\":8998:9005   */\n      dup9\n        /* \"#utility.yul\":8989:8995   */\n      dup3\n        /* \"#utility.yul\":8978:8987   */\n      dup10\n        /* \"#utility.yul\":8974:8996   */\n      add\n        /* \"#utility.yul\":8943:9006   */\n      tag_113\n      jump\t// in\n    tag_218:\n        /* \"#utility.yul\":8933:9006   */\n      swap6\n      pop\n        /* \"#utility.yul\":8889:9016   */\n      pop\n        /* \"#utility.yul\":9055:9057   */\n      0x20\n        /* \"#utility.yul\":9081:9144   */\n      tag_219\n        /* \"#utility.yul\":9136:9143   */\n      dup9\n        /* \"#utility.yul\":9127:9133   */\n      dup3\n        /* \"#utility.yul\":9116:9125   */\n      dup10\n        /* \"#utility.yul\":9112:9134   */\n      add\n        /* \"#utility.yul\":9081:9144   */\n      tag_115\n      jump\t// in\n    tag_219:\n        /* \"#utility.yul\":9071:9144   */\n      swap5\n      pop\n        /* \"#utility.yul\":9026:9154   */\n      pop\n        /* \"#utility.yul\":9193:9195   */\n      0x40\n        /* \"#utility.yul\":9219:9283   */\n      tag_220\n        /* \"#utility.yul\":9275:9282   */\n      dup9\n        /* \"#utility.yul\":9266:9272   */\n      dup3\n        /* \"#utility.yul\":9255:9264   */\n      dup10\n        /* \"#utility.yul\":9251:9273   */\n      add\n        /* \"#utility.yul\":9219:9283   */\n      tag_117\n      jump\t// in\n    tag_220:\n        /* \"#utility.yul\":9209:9283   */\n      swap4\n      pop\n        /* \"#utility.yul\":9164:9293   */\n      pop\n        /* \"#utility.yul\":9332:9334   */\n      0x60\n        /* \"#utility.yul\":9358:9422   */\n      tag_221\n        /* \"#utility.yul\":9414:9421   */\n      dup9\n        /* \"#utility.yul\":9405:9411   */\n      dup3\n        /* \"#utility.yul\":9394:9403   */\n      dup10\n        /* \"#utility.yul\":9390:9412   */\n      add\n        /* \"#utility.yul\":9358:9422   */\n      tag_117\n      jump\t// in\n    tag_221:\n        /* \"#utility.yul\":9348:9422   */\n      swap3\n      pop\n        /* \"#utility.yul\":9303:9432   */\n      pop\n        /* \"#utility.yul\":9471:9474   */\n      0x80\n        /* \"#utility.yul\":9498:9561   */\n      tag_222\n        /* \"#utility.yul\":9553:9560   */\n      dup9\n        /* \"#utility.yul\":9544:9550   */\n      dup3\n        /* \"#utility.yul\":9533:9542   */\n      dup10\n        /* \"#utility.yul\":9529:9551   */\n      add\n        /* \"#utility.yul\":9498:9561   */\n      tag_113\n      jump\t// in\n    tag_222:\n        /* \"#utility.yul\":9488:9561   */\n      swap2\n      pop\n        /* \"#utility.yul\":9442:9571   */\n      pop\n        /* \"#utility.yul\":8607:9578   */\n      swap3\n      swap6\n      pop\n      swap3\n      swap6\n      swap1\n      swap4\n      pop\n      jump\t// out\n        /* \"#utility.yul\":9584:9761   */\n    tag_118:\n        /* \"#utility.yul\":9724:9753   */\n      0x596f7520616c7265617920626f756768742074686973206974656d0000000000\n        /* \"#utility.yul\":9720:9721   */\n      0x00\n        /* \"#utility.yul\":9712:9718   */\n      dup3\n        /* \"#utility.yul\":9708:9722   */\n      add\n        /* \"#utility.yul\":9701:9754   */\n      mstore\n        /* \"#utility.yul\":9584:9761   */\n      pop\n      jump\t// out\n        /* \"#utility.yul\":9767:10133   */\n    tag_119:\n        /* \"#utility.yul\":9909:9912   */\n      0x00\n        /* \"#utility.yul\":9930:9997   */\n      tag_225\n        /* \"#utility.yul\":9994:9996   */\n      0x1b\n        /* \"#utility.yul\":9989:9992   */\n      dup4\n        /* \"#utility.yul\":9930:9997   */\n      tag_101\n      jump\t// in\n    tag_225:\n        /* \"#utility.yul\":9923:9997   */\n      swap2\n      pop\n        /* \"#utility.yul\":10006:10099   */\n      tag_226\n        /* \"#utility.yul\":10095:10098   */\n      dup3\n        /* \"#utility.yul\":10006:10099   */\n      tag_118\n      jump\t// in\n    tag_226:\n        /* \"#utility.yul\":10124:10126   */\n      0x20\n        /* \"#utility.yul\":10119:10122   */\n      dup3\n        /* \"#utility.yul\":10115:10127   */\n      add\n        /* \"#utility.yul\":10108:10127   */\n      swap1\n      pop\n        /* \"#utility.yul\":9767:10133   */\n      swap2\n      swap1\n      pop\n      jump\t// out\n        /* \"#utility.yul\":10139:10558   */\n    tag_75:\n        /* \"#utility.yul\":10305:10309   */\n      0x00\n        /* \"#utility.yul\":10343:10345   */\n      0x20\n        /* \"#utility.yul\":10332:10341   */\n      dup3\n        /* \"#utility.yul\":10328:10346   */\n      add\n        /* \"#utility.yul\":10320:10346   */\n      swap1\n      pop\n        /* \"#utility.yul\":10392:10401   */\n      dup2\n        /* \"#utility.yul\":10386:10390   */\n      dup2\n        /* \"#utility.yul\":10382:10402   */\n      sub\n        /* \"#utility.yul\":10378:10379   */\n      0x00\n        /* \"#utility.yul\":10367:10376   */\n      dup4\n        /* \"#utility.yul\":10363:10380   */\n      add\n        /* \"#utility.yul\":10356:10403   */\n      mstore\n        /* \"#utility.yul\":10420:10551   */\n      tag_228\n        /* \"#utility.yul\":10546:10550   */\n      dup2\n        /* \"#utility.yul\":10420:10551   */\n      tag_119\n      jump\t// in\n    tag_228:\n        /* \"#utility.yul\":10412:10551   */\n      swap1\n      pop\n        /* \"#utility.yul\":10139:10558   */\n      swap2\n      swap1\n      pop\n      jump\t// out\n        /* \"#utility.yul\":10564:11006   */\n    tag_77:\n        /* \"#utility.yul\":10713:10717   */\n      0x00\n        /* \"#utility.yul\":10751:10753   */\n      0x60\n        /* \"#utility.yul\":10740:10749   */\n      dup3\n        /* \"#utility.yul\":10736:10754   */\n      add\n        /* \"#utility.yul\":10728:10754   */\n      swap1\n      pop\n        /* \"#utility.yul\":10764:10835   */\n      tag_230\n        /* \"#utility.yul\":10832:10833   */\n      0x00\n        /* \"#utility.yul\":10821:10830   */\n      dup4\n        /* \"#utility.yul\":10817:10834   */\n      add\n        /* \"#utility.yul\":10808:10814   */\n      dup7\n        /* \"#utility.yul\":10764:10835   */\n      tag_93\n      jump\t// in\n    tag_230:\n        /* \"#utility.yul\":10845:10917   */\n      tag_231\n        /* \"#utility.yul\":10913:10915   */\n      0x20\n        /* \"#utility.yul\":10902:10911   */\n      dup4\n        /* \"#utility.yul\":10898:10916   */\n      add\n        /* \"#utility.yul\":10889:10895   */\n      dup6\n        /* \"#utility.yul\":10845:10917   */\n      tag_93\n      jump\t// in\n    tag_231:\n        /* \"#utility.yul\":10927:10999   */\n      tag_232\n        /* \"#utility.yul\":10995:10997   */\n      0x40\n        /* \"#utility.yul\":10984:10993   */\n      dup4\n        /* \"#utility.yul\":10980:10998   */\n      add\n        /* \"#utility.yul\":10971:10977   */\n      dup5\n        /* \"#utility.yul\":10927:10999   */\n      tag_95\n      jump\t// in\n    tag_232:\n        /* \"#utility.yul\":10564:11006   */\n      swap5\n      swap4\n      pop\n      pop\n      pop\n      pop\n      jump\t// out\n        /* \"#utility.yul\":11012:11128   */\n    tag_120:\n        /* \"#utility.yul\":11082:11103   */\n      tag_234\n        /* \"#utility.yul\":11097:11102   */\n      dup2\n        /* \"#utility.yul\":11082:11103   */\n      tag_82\n      jump\t// in\n    tag_234:\n        /* \"#utility.yul\":11075:11080   */\n      dup2\n        /* \"#utility.yul\":11072:11104   */\n      eq\n        /* \"#utility.yul\":11062:11122   */\n      tag_235\n      jumpi\n        /* \"#utility.yul\":11118:11119   */\n      0x00\n        /* \"#utility.yul\":11115:11116   */\n      dup1\n        /* \"#utility.yul\":11108:11120   */\n      revert\n        /* \"#utility.yul\":11062:11122   */\n    tag_235:\n        /* \"#utility.yul\":11012:11128   */\n      pop\n      jump\t// out\n        /* \"#utility.yul\":11134:11271   */\n    tag_121:\n        /* \"#utility.yul\":11188:11193   */\n      0x00\n        /* \"#utility.yul\":11219:11225   */\n      dup2\n        /* \"#utility.yul\":11213:11226   */\n      mload\n        /* \"#utility.yul\":11204:11226   */\n      swap1\n      pop\n        /* \"#utility.yul\":11235:11265   */\n      tag_237\n        /* \"#utility.yul\":11259:11264   */\n      dup2\n        /* \"#utility.yul\":11235:11265   */\n      tag_120\n      jump\t// in\n    tag_237:\n        /* \"#utility.yul\":11134:11271   */\n      swap3\n      swap2\n      pop\n      pop\n      jump\t// out\n        /* \"#utility.yul\":11277:11622   */\n    tag_81:\n        /* \"#utility.yul\":11344:11350   */\n      0x00\n        /* \"#utility.yul\":11393:11395   */\n      0x20\n        /* \"#utility.yul\":11381:11390   */\n      dup3\n        /* \"#utility.yul\":11372:11379   */\n      dup5\n        /* \"#utility.yul\":11368:11391   */\n      sub\n        /* \"#utility.yul\":11364:11396   */\n      slt\n        /* \"#utility.yul\":11361:11480   */\n      iszero\n      tag_239\n      jumpi\n        /* \"#utility.yul\":11399:11478   */\n      tag_240\n      tag_87\n      jump\t// in\n    tag_240:\n        /* \"#utility.yul\":11361:11480   */\n    tag_239:\n        /* \"#utility.yul\":11519:11520   */\n      0x00\n        /* \"#utility.yul\":11544:11605   */\n      tag_241\n        /* \"#utility.yul\":11597:11604   */\n      dup5\n        /* \"#utility.yul\":11588:11594   */\n      dup3\n        /* \"#utility.yul\":11577:11586   */\n      dup6\n        /* \"#utility.yul\":11573:11595   */\n      add\n        /* \"#utility.yul\":11544:11605   */\n      tag_121\n      jump\t// in\n    tag_241:\n        /* \"#utility.yul\":11534:11605   */\n      swap2\n      pop\n        /* \"#utility.yul\":11490:11615   */\n      pop\n        /* \"#utility.yul\":11277:11622   */\n      swap3\n      swap2\n      pop\n      pop\n      jump\t// out\n\n    auxdata: 0xa26469706673582212208166ce01e13fb5e74b1b56809960d5cbf6a33dedf85dfab976c02225894f046264736f6c634300080d0033\n}\n",
				"bytecode": {
					"linkReferences": {},
					"object": "6080604052678ac7230489e8000060015533600260006101000a81548173ffffffffffffffffffffffffffffffffffffffff021916908373ffffffffffffffffffffffffffffffffffffffff16021790555073d4a33860578de61dbabdc8bfdb98fd742fa7028e600360006101000a81548173ffffffffffffffffffffffffffffffffffffffff021916908373ffffffffffffffffffffffffffffffffffffffff16021790555073d9145cce52d386f254917e481eb44e9943f39138600460006101000a81548173ffffffffffffffffffffffffffffffffffffffff021916908373ffffffffffffffffffffffffffffffffffffffff16021790555034801561010757600080fd5b50610cf6806101176000396000f3fe60806040526004361061007b5760003560e01c806388c35af31161004e57806388c35af3146101315780638da5cb5b1461015c578063a035b1fe14610187578063b7b638d8146101b25761007b565b806301ca6e08146100805780632ba598511461009e5780633393c64f146100c95780635b27f2a7146100f4575b600080fd5b6100886101dd565b6040516100959190610701565b60405180910390f35b3480156100aa57600080fd5b506100b36103a6565b6040516100c09190610735565b60405180910390f35b3480156100d557600080fd5b506100de6103c2565b6040516100eb9190610735565b60405180910390f35b34801561010057600080fd5b5061011b600480360381019061011691906107b3565b610472565b6040516101289190610701565b60405180910390f35b34801561013d57600080fd5b50610146610492565b6040516101539190610701565b60405180910390f35b34801561016857600080fd5b50610171610694565b60405161017e91906107ef565b60405180910390f35b34801561019357600080fd5b5061019c6106ba565b6040516101a99190610823565b60405180910390f35b3480156101be57600080fd5b506101c76106c0565b6040516101d4919061089d565b60405180910390f35b60006101e76103a6565b3414610228576040517f08c379a000000000000000000000000000000000000000000000000000000000815260040161021f90610915565b60405180910390fd5b6000600260009054906101000a900473ffffffffffffffffffffffffffffffffffffffff1673ffffffffffffffffffffffffffffffffffffffff163460405161027090610966565b60006040518083038185875af1925050503d80600081146102ad576040519150601f19603f3d011682016040523d82523d6000602084013e6102b2565b606091505b5050905060011515811515146102fd576040517f08c379a00000000000000000000000000000000000000000000000000000000081526004016102f4906109c7565b60405180910390fd5b60016000803373ffffffffffffffffffffffffffffffffffffffff1673ffffffffffffffffffffffffffffffffffffffff16815260200190815260200160002060006101000a81548160ff0219169083151502179055506000803373ffffffffffffffffffffffffffffffffffffffff1673ffffffffffffffffffffffffffffffffffffffff16815260200190815260200160002060009054906101000a900460ff1691505090565b60006103b06103c2565b6001546103bd9190610a45565b905090565b600080600360009054906101000a900473ffffffffffffffffffffffffffffffffffffffff1673ffffffffffffffffffffffffffffffffffffffff1663feaf968c6040518163ffffffff1660e01b815260040160a060405180830381865afa158015610432573d6000803e3d6000fd5b505050506040513d601f19601f820116820180604052508101906104569190610b49565b5050509150506305f5e1008161046c9190610a45565b91505090565b60006020528060005260406000206000915054906101000a900460ff1681565b60008015156000803373ffffffffffffffffffffffffffffffffffffffff1673ffffffffffffffffffffffffffffffffffffffff16815260200190815260200160002060009054906101000a900460ff16151514610525576040517f08c379a000000000000000000000000000000000000000000000000000000000815260040161051c90610c10565b60405180910390fd5b600460009054906101000a900473ffffffffffffffffffffffffffffffffffffffff1673ffffffffffffffffffffffffffffffffffffffff166323b872dd33600260009054906101000a900473ffffffffffffffffffffffffffffffffffffffff166001546040518463ffffffff1660e01b81526004016105a893929190610c30565b6020604051808303816000875af11580156105c7573d6000803e3d6000fd5b505050506040513d601f19601f820116820180604052508101906105eb9190610c93565b5060016000803373ffffffffffffffffffffffffffffffffffffffff1673ffffffffffffffffffffffffffffffffffffffff16815260200190815260200160002060006101000a81548160ff0219169083151502179055506000803373ffffffffffffffffffffffffffffffffffffffff1673ffffffffffffffffffffffffffffffffffffffff16815260200190815260200160002060009054906101000a900460ff16905090565b600260009054906101000a900473ffffffffffffffffffffffffffffffffffffffff1681565b60015481565b600460009054906101000a900473ffffffffffffffffffffffffffffffffffffffff1681565b60008115159050919050565b6106fb816106e6565b82525050565b600060208201905061071660008301846106f2565b92915050565b6000819050919050565b61072f8161071c565b82525050565b600060208201905061074a6000830184610726565b92915050565b600080fd5b600073ffffffffffffffffffffffffffffffffffffffff82169050919050565b600061078082610755565b9050919050565b61079081610775565b811461079b57600080fd5b50565b6000813590506107ad81610787565b92915050565b6000602082840312156107c9576107c8610750565b5b60006107d78482850161079e565b91505092915050565b6107e981610775565b82525050565b600060208201905061080460008301846107e0565b92915050565b6000819050919050565b61081d8161080a565b82525050565b60006020820190506108386000830184610814565b92915050565b6000819050919050565b600061086361085e61085984610755565b61083e565b610755565b9050919050565b600061087582610848565b9050919050565b60006108878261086a565b9050919050565b6108978161087c565b82525050565b60006020820190506108b2600083018461088e565b92915050565b600082825260208201905092915050565b7f57726f6e6720616d6f756e74206f662045544800000000000000000000000000600082015250565b60006108ff6013836108b8565b915061090a826108c9565b602082019050919050565b6000602082019050818103600083015261092e816108f2565b9050919050565b600081905092915050565b50565b6000610950600083610935565b915061095b82610940565b600082019050919050565b600061097182610943565b9150819050919050565b7f4661696c656420746f2073656e64204554480000000000000000000000000000600082015250565b60006109b16012836108b8565b91506109bc8261097b565b602082019050919050565b600060208201905081810360008301526109e0816109a4565b9050919050565b7f4e487b7100000000000000000000000000000000000000000000000000000000600052601260045260246000fd5b7f4e487b7100000000000000000000000000000000000000000000000000000000600052601160045260246000fd5b6000610a508261071c565b9150610a5b8361071c565b925082610a6b57610a6a6109e7565b5b600160000383147f800000000000000000000000000000000000000000000000000000000000000083141615610aa457610aa3610a16565b5b828205905092915050565b600069ffffffffffffffffffff82169050919050565b610ace81610aaf565b8114610ad957600080fd5b50565b600081519050610aeb81610ac5565b92915050565b610afa8161071c565b8114610b0557600080fd5b50565b600081519050610b1781610af1565b92915050565b610b268161080a565b8114610b3157600080fd5b50565b600081519050610b4381610b1d565b92915050565b600080600080600060a08688031215610b6557610b64610750565b5b6000610b7388828901610adc565b9550506020610b8488828901610b08565b9450506040610b9588828901610b34565b9350506060610ba688828901610b34565b9250506080610bb788828901610adc565b9150509295509295909350565b7f596f7520616c7265617920626f756768742074686973206974656d0000000000600082015250565b6000610bfa601b836108b8565b9150610c0582610bc4565b602082019050919050565b60006020820190508181036000830152610c2981610bed565b9050919050565b6000606082019050610c4560008301866107e0565b610c5260208301856107e0565b610c5f6040830184610814565b949350505050565b610c70816106e6565b8114610c7b57600080fd5b50565b600081519050610c8d81610c67565b92915050565b600060208284031215610ca957610ca8610750565b5b6000610cb784828501610c7e565b9150509291505056fea26469706673582212208166ce01e13fb5e74b1b56809960d5cbf6a33dedf85dfab976c02225894f046264736f6c634300080d0033",
					"opcodes": "PUSH1 0x80 PUSH1 0x40 MSTORE PUSH8 0x8AC7230489E80000 PUSH1 0x1 SSTORE CALLER PUSH1 0x2 PUSH1 0x0 PUSH2 0x100 EXP DUP2 SLOAD DUP2 PUSH20 0xFFFFFFFFFFFFFFFFFFFFFFFFFFFFFFFFFFFFFFFF MUL NOT AND SWAP1 DUP4 PUSH20 0xFFFFFFFFFFFFFFFFFFFFFFFFFFFFFFFFFFFFFFFF AND MUL OR SWAP1 SSTORE POP PUSH20 0xD4A33860578DE61DBABDC8BFDB98FD742FA7028E PUSH1 0x3 PUSH1 0x0 PUSH2 0x100 EXP DUP2 SLOAD DUP2 PUSH20 0xFFFFFFFFFFFFFFFFFFFFFFFFFFFFFFFFFFFFFFFF MUL NOT AND SWAP1 DUP4 PUSH20 0xFFFFFFFFFFFFFFFFFFFFFFFFFFFFFFFFFFFFFFFF AND MUL OR SWAP1 SSTORE POP PUSH20 0xD9145CCE52D386F254917E481EB44E9943F39138 PUSH1 0x4 PUSH1 0x0 PUSH2 0x100 EXP DUP2 SLOAD DUP2 PUSH20 0xFFFFFFFFFFFFFFFFFFFFFFFFFFFFFFFFFFFFFFFF MUL NOT AND SWAP1 DUP4 PUSH20 0xFFFFFFFFFFFFFFFFFFFFFFFFFFFFFFFFFFFFFFFF AND MUL OR SWAP1 SSTORE POP CALLVALUE DUP1 ISZERO PUSH2 0x107 JUMPI PUSH1 0x0 DUP1 REVERT JUMPDEST POP PUSH2 0xCF6 DUP1 PUSH2 0x117 PUSH1 0x0 CODECOPY PUSH1 0x0 RETURN INVALID PUSH1 0x80 PUSH1 0x40 MSTORE PUSH1 0x4 CALLDATASIZE LT PUSH2 0x7B JUMPI PUSH1 0x0 CALLDATALOAD PUSH1 0xE0 SHR DUP1 PUSH4 0x88C35AF3 GT PUSH2 0x4E JUMPI DUP1 PUSH4 0x88C35AF3 EQ PUSH2 0x131 JUMPI DUP1 PUSH4 0x8DA5CB5B EQ PUSH2 0x15C JUMPI DUP1 PUSH4 0xA035B1FE EQ PUSH2 0x187 JUMPI DUP1 PUSH4 0xB7B638D8 EQ PUSH2 0x1B2 JUMPI PUSH2 0x7B JUMP JUMPDEST DUP1 PUSH4 0x1CA6E08 EQ PUSH2 0x80 JUMPI DUP1 PUSH4 0x2BA59851 EQ PUSH2 0x9E JUMPI DUP1 PUSH4 0x3393C64F EQ PUSH2 0xC9 JUMPI DUP1 PUSH4 0x5B27F2A7 EQ PUSH2 0xF4 JUMPI JUMPDEST PUSH1 0x0 DUP1 REVERT JUMPDEST PUSH2 0x88 PUSH2 0x1DD JUMP JUMPDEST PUSH1 0x40 MLOAD PUSH2 0x95 SWAP2 SWAP1 PUSH2 0x701 JUMP JUMPDEST PUSH1 0x40 MLOAD DUP1 SWAP2 SUB SWAP1 RETURN JUMPDEST CALLVALUE DUP1 ISZERO PUSH2 0xAA JUMPI PUSH1 0x0 DUP1 REVERT JUMPDEST POP PUSH2 0xB3 PUSH2 0x3A6 JUMP JUMPDEST PUSH1 0x40 MLOAD PUSH2 0xC0 SWAP2 SWAP1 PUSH2 0x735 JUMP JUMPDEST PUSH1 0x40 MLOAD DUP1 SWAP2 SUB SWAP1 RETURN JUMPDEST CALLVALUE DUP1 ISZERO PUSH2 0xD5 JUMPI PUSH1 0x0 DUP1 REVERT JUMPDEST POP PUSH2 0xDE PUSH2 0x3C2 JUMP JUMPDEST PUSH1 0x40 MLOAD PUSH2 0xEB SWAP2 SWAP1 PUSH2 0x735 JUMP JUMPDEST PUSH1 0x40 MLOAD DUP1 SWAP2 SUB SWAP1 RETURN JUMPDEST CALLVALUE DUP1 ISZERO PUSH2 0x100 JUMPI PUSH1 0x0 DUP1 REVERT JUMPDEST POP PUSH2 0x11B PUSH1 0x4 DUP1 CALLDATASIZE SUB DUP2 ADD SWAP1 PUSH2 0x116 SWAP2 SWAP1 PUSH2 0x7B3 JUMP JUMPDEST PUSH2 0x472 JUMP JUMPDEST PUSH1 0x40 MLOAD PUSH2 0x128 SWAP2 SWAP1 PUSH2 0x701 JUMP JUMPDEST PUSH1 0x40 MLOAD DUP1 SWAP2 SUB SWAP1 RETURN JUMPDEST CALLVALUE DUP1 ISZERO PUSH2 0x13D JUMPI PUSH1 0x0 DUP1 REVERT JUMPDEST POP PUSH2 0x146 PUSH2 0x492 JUMP JUMPDEST PUSH1 0x40 MLOAD PUSH2 0x153 SWAP2 SWAP1 PUSH2 0x701 JUMP JUMPDEST PUSH1 0x40 MLOAD DUP1 SWAP2 SUB SWAP1 RETURN JUMPDEST CALLVALUE DUP1 ISZERO PUSH2 0x168 JUMPI PUSH1 0x0 DUP1 REVERT JUMPDEST POP PUSH2 0x171 PUSH2 0x694 JUMP JUMPDEST PUSH1 0x40 MLOAD PUSH2 0x17E SWAP2 SWAP1 PUSH2 0x7EF JUMP JUMPDEST PUSH1 0x40 MLOAD DUP1 SWAP2 SUB SWAP1 RETURN JUMPDEST CALLVALUE DUP1 ISZERO PUSH2 0x193 JUMPI PUSH1 0x0 DUP1 REVERT JUMPDEST POP PUSH2 0x19C PUSH2 0x6BA JUMP JUMPDEST PUSH1 0x40 MLOAD PUSH2 0x1A9 SWAP2 SWAP1 PUSH2 0x823 JUMP JUMPDEST PUSH1 0x40 MLOAD DUP1 SWAP2 SUB SWAP1 RETURN JUMPDEST CALLVALUE DUP1 ISZERO PUSH2 0x1BE JUMPI PUSH1 0x0 DUP1 REVERT JUMPDEST POP PUSH2 0x1C7 PUSH2 0x6C0 JUMP JUMPDEST PUSH1 0x40 MLOAD PUSH2 0x1D4 SWAP2 SWAP1 PUSH2 0x89D JUMP JUMPDEST PUSH1 0x40 MLOAD DUP1 SWAP2 SUB SWAP1 RETURN JUMPDEST PUSH1 0x0 PUSH2 0x1E7 PUSH2 0x3A6 JUMP JUMPDEST CALLVALUE EQ PUSH2 0x228 JUMPI PUSH1 0x40 MLOAD PUSH32 0x8C379A000000000000000000000000000000000000000000000000000000000 DUP2 MSTORE PUSH1 0x4 ADD PUSH2 0x21F SWAP1 PUSH2 0x915 JUMP JUMPDEST PUSH1 0x40 MLOAD DUP1 SWAP2 SUB SWAP1 REVERT JUMPDEST PUSH1 0x0 PUSH1 0x2 PUSH1 0x0 SWAP1 SLOAD SWAP1 PUSH2 0x100 EXP SWAP1 DIV PUSH20 0xFFFFFFFFFFFFFFFFFFFFFFFFFFFFFFFFFFFFFFFF AND PUSH20 0xFFFFFFFFFFFFFFFFFFFFFFFFFFFFFFFFFFFFFFFF AND CALLVALUE PUSH1 0x40 MLOAD PUSH2 0x270 SWAP1 PUSH2 0x966 JUMP JUMPDEST PUSH1 0x0 PUSH1 0x40 MLOAD DUP1 DUP4 SUB DUP2 DUP6 DUP8 GAS CALL SWAP3 POP POP POP RETURNDATASIZE DUP1 PUSH1 0x0 DUP2 EQ PUSH2 0x2AD JUMPI PUSH1 0x40 MLOAD SWAP2 POP PUSH1 0x1F NOT PUSH1 0x3F RETURNDATASIZE ADD AND DUP3 ADD PUSH1 0x40 MSTORE RETURNDATASIZE DUP3 MSTORE RETURNDATASIZE PUSH1 0x0 PUSH1 0x20 DUP5 ADD RETURNDATACOPY PUSH2 0x2B2 JUMP JUMPDEST PUSH1 0x60 SWAP2 POP JUMPDEST POP POP SWAP1 POP PUSH1 0x1 ISZERO ISZERO DUP2 ISZERO ISZERO EQ PUSH2 0x2FD JUMPI PUSH1 0x40 MLOAD PUSH32 0x8C379A000000000000000000000000000000000000000000000000000000000 DUP2 MSTORE PUSH1 0x4 ADD PUSH2 0x2F4 SWAP1 PUSH2 0x9C7 JUMP JUMPDEST PUSH1 0x40 MLOAD DUP1 SWAP2 SUB SWAP1 REVERT JUMPDEST PUSH1 0x1 PUSH1 0x0 DUP1 CALLER PUSH20 0xFFFFFFFFFFFFFFFFFFFFFFFFFFFFFFFFFFFFFFFF AND PUSH20 0xFFFFFFFFFFFFFFFFFFFFFFFFFFFFFFFFFFFFFFFF AND DUP2 MSTORE PUSH1 0x20 ADD SWAP1 DUP2 MSTORE PUSH1 0x20 ADD PUSH1 0x0 KECCAK256 PUSH1 0x0 PUSH2 0x100 EXP DUP2 SLOAD DUP2 PUSH1 0xFF MUL NOT AND SWAP1 DUP4 ISZERO ISZERO MUL OR SWAP1 SSTORE POP PUSH1 0x0 DUP1 CALLER PUSH20 0xFFFFFFFFFFFFFFFFFFFFFFFFFFFFFFFFFFFFFFFF AND PUSH20 0xFFFFFFFFFFFFFFFFFFFFFFFFFFFFFFFFFFFFFFFF AND DUP2 MSTORE PUSH1 0x20 ADD SWAP1 DUP2 MSTORE PUSH1 0x20 ADD PUSH1 0x0 KECCAK256 PUSH1 0x0 SWAP1 SLOAD SWAP1 PUSH2 0x100 EXP SWAP1 DIV PUSH1 0xFF AND SWAP2 POP POP SWAP1 JUMP JUMPDEST PUSH1 0x0 PUSH2 0x3B0 PUSH2 0x3C2 JUMP JUMPDEST PUSH1 0x1 SLOAD PUSH2 0x3BD SWAP2 SWAP1 PUSH2 0xA45 JUMP JUMPDEST SWAP1 POP SWAP1 JUMP JUMPDEST PUSH1 0x0 DUP1 PUSH1 0x3 PUSH1 0x0 SWAP1 SLOAD SWAP1 PUSH2 0x100 EXP SWAP1 DIV PUSH20 0xFFFFFFFFFFFFFFFFFFFFFFFFFFFFFFFFFFFFFFFF AND PUSH20 0xFFFFFFFFFFFFFFFFFFFFFFFFFFFFFFFFFFFFFFFF AND PUSH4 0xFEAF968C PUSH1 0x40 MLOAD DUP2 PUSH4 0xFFFFFFFF AND PUSH1 0xE0 SHL DUP2 MSTORE PUSH1 0x4 ADD PUSH1 0xA0 PUSH1 0x40 MLOAD DUP1 DUP4 SUB DUP2 DUP7 GAS STATICCALL ISZERO DUP1 ISZERO PUSH2 0x432 JUMPI RETURNDATASIZE PUSH1 0x0 DUP1 RETURNDATACOPY RETURNDATASIZE PUSH1 0x0 REVERT JUMPDEST POP POP POP POP PUSH1 0x40 MLOAD RETURNDATASIZE PUSH1 0x1F NOT PUSH1 0x1F DUP3 ADD AND DUP3 ADD DUP1 PUSH1 0x40 MSTORE POP DUP2 ADD SWAP1 PUSH2 0x456 SWAP2 SWAP1 PUSH2 0xB49 JUMP JUMPDEST POP POP POP SWAP2 POP POP PUSH4 0x5F5E100 DUP2 PUSH2 0x46C SWAP2 SWAP1 PUSH2 0xA45 JUMP JUMPDEST SWAP2 POP POP SWAP1 JUMP JUMPDEST PUSH1 0x0 PUSH1 0x20 MSTORE DUP1 PUSH1 0x0 MSTORE PUSH1 0x40 PUSH1 0x0 KECCAK256 PUSH1 0x0 SWAP2 POP SLOAD SWAP1 PUSH2 0x100 EXP SWAP1 DIV PUSH1 0xFF AND DUP2 JUMP JUMPDEST PUSH1 0x0 DUP1 ISZERO ISZERO PUSH1 0x0 DUP1 CALLER PUSH20 0xFFFFFFFFFFFFFFFFFFFFFFFFFFFFFFFFFFFFFFFF AND PUSH20 0xFFFFFFFFFFFFFFFFFFFFFFFFFFFFFFFFFFFFFFFF AND DUP2 MSTORE PUSH1 0x20 ADD SWAP1 DUP2 MSTORE PUSH1 0x20 ADD PUSH1 0x0 KECCAK256 PUSH1 0x0 SWAP1 SLOAD SWAP1 PUSH2 0x100 EXP SWAP1 DIV PUSH1 0xFF AND ISZERO ISZERO EQ PUSH2 0x525 JUMPI PUSH1 0x40 MLOAD PUSH32 0x8C379A000000000000000000000000000000000000000000000000000000000 DUP2 MSTORE PUSH1 0x4 ADD PUSH2 0x51C SWAP1 PUSH2 0xC10 JUMP JUMPDEST PUSH1 0x40 MLOAD DUP1 SWAP2 SUB SWAP1 REVERT JUMPDEST PUSH1 0x4 PUSH1 0x0 SWAP1 SLOAD SWAP1 PUSH2 0x100 EXP SWAP1 DIV PUSH20 0xFFFFFFFFFFFFFFFFFFFFFFFFFFFFFFFFFFFFFFFF AND PUSH20 0xFFFFFFFFFFFFFFFFFFFFFFFFFFFFFFFFFFFFFFFF AND PUSH4 0x23B872DD CALLER PUSH1 0x2 PUSH1 0x0 SWAP1 SLOAD SWAP1 PUSH2 0x100 EXP SWAP1 DIV PUSH20 0xFFFFFFFFFFFFFFFFFFFFFFFFFFFFFFFFFFFFFFFF AND PUSH1 0x1 SLOAD PUSH1 0x40 MLOAD DUP5 PUSH4 0xFFFFFFFF AND PUSH1 0xE0 SHL DUP2 MSTORE PUSH1 0x4 ADD PUSH2 0x5A8 SWAP4 SWAP3 SWAP2 SWAP1 PUSH2 0xC30 JUMP JUMPDEST PUSH1 0x20 PUSH1 0x40 MLOAD DUP1 DUP4 SUB DUP2 PUSH1 0x0 DUP8 GAS CALL ISZERO DUP1 ISZERO PUSH2 0x5C7 JUMPI RETURNDATASIZE PUSH1 0x0 DUP1 RETURNDATACOPY RETURNDATASIZE PUSH1 0x0 REVERT JUMPDEST POP POP POP POP PUSH1 0x40 MLOAD RETURNDATASIZE PUSH1 0x1F NOT PUSH1 0x1F DUP3 ADD AND DUP3 ADD DUP1 PUSH1 0x40 MSTORE POP DUP2 ADD SWAP1 PUSH2 0x5EB SWAP2 SWAP1 PUSH2 0xC93 JUMP JUMPDEST POP PUSH1 0x1 PUSH1 0x0 DUP1 CALLER PUSH20 0xFFFFFFFFFFFFFFFFFFFFFFFFFFFFFFFFFFFFFFFF AND PUSH20 0xFFFFFFFFFFFFFFFFFFFFFFFFFFFFFFFFFFFFFFFF AND DUP2 MSTORE PUSH1 0x20 ADD SWAP1 DUP2 MSTORE PUSH1 0x20 ADD PUSH1 0x0 KECCAK256 PUSH1 0x0 PUSH2 0x100 EXP DUP2 SLOAD DUP2 PUSH1 0xFF MUL NOT AND SWAP1 DUP4 ISZERO ISZERO MUL OR SWAP1 SSTORE POP PUSH1 0x0 DUP1 CALLER PUSH20 0xFFFFFFFFFFFFFFFFFFFFFFFFFFFFFFFFFFFFFFFF AND PUSH20 0xFFFFFFFFFFFFFFFFFFFFFFFFFFFFFFFFFFFFFFFF AND DUP2 MSTORE PUSH1 0x20 ADD SWAP1 DUP2 MSTORE PUSH1 0x20 ADD PUSH1 0x0 KECCAK256 PUSH1 0x0 SWAP1 SLOAD SWAP1 PUSH2 0x100 EXP SWAP1 DIV PUSH1 0xFF AND SWAP1 POP SWAP1 JUMP JUMPDEST PUSH1 0x2 PUSH1 0x0 SWAP1 SLOAD SWAP1 PUSH2 0x100 EXP SWAP1 DIV PUSH20 0xFFFFFFFFFFFFFFFFFFFFFFFFFFFFFFFFFFFFFFFF AND DUP2 JUMP JUMPDEST PUSH1 0x1 SLOAD DUP2 JUMP JUMPDEST PUSH1 0x4 PUSH1 0x0 SWAP1 SLOAD SWAP1 PUSH2 0x100 EXP SWAP1 DIV PUSH20 0xFFFFFFFFFFFFFFFFFFFFFFFFFFFFFFFFFFFFFFFF AND DUP2 JUMP JUMPDEST PUSH1 0x0 DUP2 ISZERO ISZERO SWAP1 POP SWAP2 SWAP1 POP JUMP JUMPDEST PUSH2 0x6FB DUP2 PUSH2 0x6E6 JUMP JUMPDEST DUP3 MSTORE POP POP JUMP JUMPDEST PUSH1 0x0 PUSH1 0x20 DUP3 ADD SWAP1 POP PUSH2 0x716 PUSH1 0x0 DUP4 ADD DUP5 PUSH2 0x6F2 JUMP JUMPDEST SWAP3 SWAP2 POP POP JUMP JUMPDEST PUSH1 0x0 DUP2 SWAP1 POP SWAP2 SWAP1 POP JUMP JUMPDEST PUSH2 0x72F DUP2 PUSH2 0x71C JUMP JUMPDEST DUP3 MSTORE POP POP JUMP JUMPDEST PUSH1 0x0 PUSH1 0x20 DUP3 ADD SWAP1 POP PUSH2 0x74A PUSH1 0x0 DUP4 ADD DUP5 PUSH2 0x726 JUMP JUMPDEST SWAP3 SWAP2 POP POP JUMP JUMPDEST PUSH1 0x0 DUP1 REVERT JUMPDEST PUSH1 0x0 PUSH20 0xFFFFFFFFFFFFFFFFFFFFFFFFFFFFFFFFFFFFFFFF DUP3 AND SWAP1 POP SWAP2 SWAP1 POP JUMP JUMPDEST PUSH1 0x0 PUSH2 0x780 DUP3 PUSH2 0x755 JUMP JUMPDEST SWAP1 POP SWAP2 SWAP1 POP JUMP JUMPDEST PUSH2 0x790 DUP2 PUSH2 0x775 JUMP JUMPDEST DUP2 EQ PUSH2 0x79B JUMPI PUSH1 0x0 DUP1 REVERT JUMPDEST POP JUMP JUMPDEST PUSH1 0x0 DUP2 CALLDATALOAD SWAP1 POP PUSH2 0x7AD DUP2 PUSH2 0x787 JUMP JUMPDEST SWAP3 SWAP2 POP POP JUMP JUMPDEST PUSH1 0x0 PUSH1 0x20 DUP3 DUP5 SUB SLT ISZERO PUSH2 0x7C9 JUMPI PUSH2 0x7C8 PUSH2 0x750 JUMP JUMPDEST JUMPDEST PUSH1 0x0 PUSH2 0x7D7 DUP5 DUP3 DUP6 ADD PUSH2 0x79E JUMP JUMPDEST SWAP2 POP POP SWAP3 SWAP2 POP POP JUMP JUMPDEST PUSH2 0x7E9 DUP2 PUSH2 0x775 JUMP JUMPDEST DUP3 MSTORE POP POP JUMP JUMPDEST PUSH1 0x0 PUSH1 0x20 DUP3 ADD SWAP1 POP PUSH2 0x804 PUSH1 0x0 DUP4 ADD DUP5 PUSH2 0x7E0 JUMP JUMPDEST SWAP3 SWAP2 POP POP JUMP JUMPDEST PUSH1 0x0 DUP2 SWAP1 POP SWAP2 SWAP1 POP JUMP JUMPDEST PUSH2 0x81D DUP2 PUSH2 0x80A JUMP JUMPDEST DUP3 MSTORE POP POP JUMP JUMPDEST PUSH1 0x0 PUSH1 0x20 DUP3 ADD SWAP1 POP PUSH2 0x838 PUSH1 0x0 DUP4 ADD DUP5 PUSH2 0x814 JUMP JUMPDEST SWAP3 SWAP2 POP POP JUMP JUMPDEST PUSH1 0x0 DUP2 SWAP1 POP SWAP2 SWAP1 POP JUMP JUMPDEST PUSH1 0x0 PUSH2 0x863 PUSH2 0x85E PUSH2 0x859 DUP5 PUSH2 0x755 JUMP JUMPDEST PUSH2 0x83E JUMP JUMPDEST PUSH2 0x755 JUMP JUMPDEST SWAP1 POP SWAP2 SWAP1 POP JUMP JUMPDEST PUSH1 0x0 PUSH2 0x875 DUP3 PUSH2 0x848 JUMP JUMPDEST SWAP1 POP SWAP2 SWAP1 POP JUMP JUMPDEST PUSH1 0x0 PUSH2 0x887 DUP3 PUSH2 0x86A JUMP JUMPDEST SWAP1 POP SWAP2 SWAP1 POP JUMP JUMPDEST PUSH2 0x897 DUP2 PUSH2 0x87C JUMP JUMPDEST DUP3 MSTORE POP POP JUMP JUMPDEST PUSH1 0x0 PUSH1 0x20 DUP3 ADD SWAP1 POP PUSH2 0x8B2 PUSH1 0x0 DUP4 ADD DUP5 PUSH2 0x88E JUMP JUMPDEST SWAP3 SWAP2 POP POP JUMP JUMPDEST PUSH1 0x0 DUP3 DUP3 MSTORE PUSH1 0x20 DUP3 ADD SWAP1 POP SWAP3 SWAP2 POP POP JUMP JUMPDEST PUSH32 0x57726F6E6720616D6F756E74206F662045544800000000000000000000000000 PUSH1 0x0 DUP3 ADD MSTORE POP JUMP JUMPDEST PUSH1 0x0 PUSH2 0x8FF PUSH1 0x13 DUP4 PUSH2 0x8B8 JUMP JUMPDEST SWAP2 POP PUSH2 0x90A DUP3 PUSH2 0x8C9 JUMP JUMPDEST PUSH1 0x20 DUP3 ADD SWAP1 POP SWAP2 SWAP1 POP JUMP JUMPDEST PUSH1 0x0 PUSH1 0x20 DUP3 ADD SWAP1 POP DUP2 DUP2 SUB PUSH1 0x0 DUP4 ADD MSTORE PUSH2 0x92E DUP2 PUSH2 0x8F2 JUMP JUMPDEST SWAP1 POP SWAP2 SWAP1 POP JUMP JUMPDEST PUSH1 0x0 DUP2 SWAP1 POP SWAP3 SWAP2 POP POP JUMP JUMPDEST POP JUMP JUMPDEST PUSH1 0x0 PUSH2 0x950 PUSH1 0x0 DUP4 PUSH2 0x935 JUMP JUMPDEST SWAP2 POP PUSH2 0x95B DUP3 PUSH2 0x940 JUMP JUMPDEST PUSH1 0x0 DUP3 ADD SWAP1 POP SWAP2 SWAP1 POP JUMP JUMPDEST PUSH1 0x0 PUSH2 0x971 DUP3 PUSH2 0x943 JUMP JUMPDEST SWAP2 POP DUP2 SWAP1 POP SWAP2 SWAP1 POP JUMP JUMPDEST PUSH32 0x4661696C656420746F2073656E64204554480000000000000000000000000000 PUSH1 0x0 DUP3 ADD MSTORE POP JUMP JUMPDEST PUSH1 0x0 PUSH2 0x9B1 PUSH1 0x12 DUP4 PUSH2 0x8B8 JUMP JUMPDEST SWAP2 POP PUSH2 0x9BC DUP3 PUSH2 0x97B JUMP JUMPDEST PUSH1 0x20 DUP3 ADD SWAP1 POP SWAP2 SWAP1 POP JUMP JUMPDEST PUSH1 0x0 PUSH1 0x20 DUP3 ADD SWAP1 POP DUP2 DUP2 SUB PUSH1 0x0 DUP4 ADD MSTORE PUSH2 0x9E0 DUP2 PUSH2 0x9A4 JUMP JUMPDEST SWAP1 POP SWAP2 SWAP1 POP JUMP JUMPDEST PUSH32 0x4E487B7100000000000000000000000000000000000000000000000000000000 PUSH1 0x0 MSTORE PUSH1 0x12 PUSH1 0x4 MSTORE PUSH1 0x24 PUSH1 0x0 REVERT JUMPDEST PUSH32 0x4E487B7100000000000000000000000000000000000000000000000000000000 PUSH1 0x0 MSTORE PUSH1 0x11 PUSH1 0x4 MSTORE PUSH1 0x24 PUSH1 0x0 REVERT JUMPDEST PUSH1 0x0 PUSH2 0xA50 DUP3 PUSH2 0x71C JUMP JUMPDEST SWAP2 POP PUSH2 0xA5B DUP4 PUSH2 0x71C JUMP JUMPDEST SWAP3 POP DUP3 PUSH2 0xA6B JUMPI PUSH2 0xA6A PUSH2 0x9E7 JUMP JUMPDEST JUMPDEST PUSH1 0x1 PUSH1 0x0 SUB DUP4 EQ PUSH32 0x8000000000000000000000000000000000000000000000000000000000000000 DUP4 EQ AND ISZERO PUSH2 0xAA4 JUMPI PUSH2 0xAA3 PUSH2 0xA16 JUMP JUMPDEST JUMPDEST DUP3 DUP3 SDIV SWAP1 POP SWAP3 SWAP2 POP POP JUMP JUMPDEST PUSH1 0x0 PUSH10 0xFFFFFFFFFFFFFFFFFFFF DUP3 AND SWAP1 POP SWAP2 SWAP1 POP JUMP JUMPDEST PUSH2 0xACE DUP2 PUSH2 0xAAF JUMP JUMPDEST DUP2 EQ PUSH2 0xAD9 JUMPI PUSH1 0x0 DUP1 REVERT JUMPDEST POP JUMP JUMPDEST PUSH1 0x0 DUP2 MLOAD SWAP1 POP PUSH2 0xAEB DUP2 PUSH2 0xAC5 JUMP JUMPDEST SWAP3 SWAP2 POP POP JUMP JUMPDEST PUSH2 0xAFA DUP2 PUSH2 0x71C JUMP JUMPDEST DUP2 EQ PUSH2 0xB05 JUMPI PUSH1 0x0 DUP1 REVERT JUMPDEST POP JUMP JUMPDEST PUSH1 0x0 DUP2 MLOAD SWAP1 POP PUSH2 0xB17 DUP2 PUSH2 0xAF1 JUMP JUMPDEST SWAP3 SWAP2 POP POP JUMP JUMPDEST PUSH2 0xB26 DUP2 PUSH2 0x80A JUMP JUMPDEST DUP2 EQ PUSH2 0xB31 JUMPI PUSH1 0x0 DUP1 REVERT JUMPDEST POP JUMP JUMPDEST PUSH1 0x0 DUP2 MLOAD SWAP1 POP PUSH2 0xB43 DUP2 PUSH2 0xB1D JUMP JUMPDEST SWAP3 SWAP2 POP POP JUMP JUMPDEST PUSH1 0x0 DUP1 PUSH1 0x0 DUP1 PUSH1 0x0 PUSH1 0xA0 DUP7 DUP9 SUB SLT ISZERO PUSH2 0xB65 JUMPI PUSH2 0xB64 PUSH2 0x750 JUMP JUMPDEST JUMPDEST PUSH1 0x0 PUSH2 0xB73 DUP9 DUP3 DUP10 ADD PUSH2 0xADC JUMP JUMPDEST SWAP6 POP POP PUSH1 0x20 PUSH2 0xB84 DUP9 DUP3 DUP10 ADD PUSH2 0xB08 JUMP JUMPDEST SWAP5 POP POP PUSH1 0x40 PUSH2 0xB95 DUP9 DUP3 DUP10 ADD PUSH2 0xB34 JUMP JUMPDEST SWAP4 POP POP PUSH1 0x60 PUSH2 0xBA6 DUP9 DUP3 DUP10 ADD PUSH2 0xB34 JUMP JUMPDEST SWAP3 POP POP PUSH1 0x80 PUSH2 0xBB7 DUP9 DUP3 DUP10 ADD PUSH2 0xADC JUMP JUMPDEST SWAP2 POP POP SWAP3 SWAP6 POP SWAP3 SWAP6 SWAP1 SWAP4 POP JUMP JUMPDEST PUSH32 0x596F7520616C7265617920626F756768742074686973206974656D0000000000 PUSH1 0x0 DUP3 ADD MSTORE POP JUMP JUMPDEST PUSH1 0x0 PUSH2 0xBFA PUSH1 0x1B DUP4 PUSH2 0x8B8 JUMP JUMPDEST SWAP2 POP PUSH2 0xC05 DUP3 PUSH2 0xBC4 JUMP JUMPDEST PUSH1 0x20 DUP3 ADD SWAP1 POP SWAP2 SWAP1 POP JUMP JUMPDEST PUSH1 0x0 PUSH1 0x20 DUP3 ADD SWAP1 POP DUP2 DUP2 SUB PUSH1 0x0 DUP4 ADD MSTORE PUSH2 0xC29 DUP2 PUSH2 0xBED JUMP JUMPDEST SWAP1 POP SWAP2 SWAP1 POP JUMP JUMPDEST PUSH1 0x0 PUSH1 0x60 DUP3 ADD SWAP1 POP PUSH2 0xC45 PUSH1 0x0 DUP4 ADD DUP7 PUSH2 0x7E0 JUMP JUMPDEST PUSH2 0xC52 PUSH1 0x20 DUP4 ADD DUP6 PUSH2 0x7E0 JUMP JUMPDEST PUSH2 0xC5F PUSH1 0x40 DUP4 ADD DUP5 PUSH2 0x814 JUMP JUMPDEST SWAP5 SWAP4 POP POP POP POP JUMP JUMPDEST PUSH2 0xC70 DUP2 PUSH2 0x6E6 JUMP JUMPDEST DUP2 EQ PUSH2 0xC7B JUMPI PUSH1 0x0 DUP1 REVERT JUMPDEST POP JUMP JUMPDEST PUSH1 0x0 DUP2 MLOAD SWAP1 POP PUSH2 0xC8D DUP2 PUSH2 0xC67 JUMP JUMPDEST SWAP3 SWAP2 POP POP JUMP JUMPDEST PUSH1 0x0 PUSH1 0x20 DUP3 DUP5 SUB SLT ISZERO PUSH2 0xCA9 JUMPI PUSH2 0xCA8 PUSH2 0x750 JUMP JUMPDEST JUMPDEST PUSH1 0x0 PUSH2 0xCB7 DUP5 DUP3 DUP6 ADD PUSH2 0xC7E JUMP JUMPDEST SWAP2 POP POP SWAP3 SWAP2 POP POP JUMP INVALID LOG2 PUSH5 0x6970667358 0x22 SLT KECCAK256 DUP2 PUSH7 0xCE01E13FB5E74B SHL JUMP DUP1 SWAP10 PUSH1 0xD5 0xCB 0xF6 LOG3 RETURNDATASIZE 0xED 0xF8 0x5D STATICCALL 0xB9 PUSH23 0xC02225894F046264736F6C634300080D00330000000000 "
				},
				"gasEstimates": {
					"creation": {
						"codeDepositCost": "663600",
						"executionCost": "95602",
						"totalCost": "759202"
					},
					"external": {
						"USDCfToken()": "infinite",
						"alreadyBought(address)": "2912",
						"getCurrentPricceOfETH()": "infinite",
						"getPriceInETH()": "infinite",
						"owner()": "2536",
						"payInETH()": "infinite",
						"payInUSDCf()": "infinite",
						"price()": "2473"
					}
				},
				"methodIdentifiers": {
					"USDCfToken()": "b7b638d8",
					"alreadyBought(address)": "5b27f2a7",
					"getCurrentPricceOfETH()": "3393c64f",
					"getPriceInETH()": "2ba59851",
					"owner()": "8da5cb5b",
					"payInETH()": "01ca6e08",
					"payInUSDCf()": "88c35af3",
					"price()": "a035b1fe"
				}
			},
			"storageLayout": {
				"storage": [
					{
						"astId": 53,
						"contract": "Market-palce/marketPlaceItem1.sol:marketPlaceItem1",
						"label": "alreadyBought",
						"offset": 0,
						"slot": "0",
						"type": "t_mapping(t_address,t_bool)"
					},
					{
						"astId": 61,
						"contract": "Market-palce/marketPlaceItem1.sol:marketPlaceItem1",
						"label": "price",
						"offset": 0,
						"slot": "1",
						"type": "t_uint256"
					},
					{
						"astId": 68,
						"contract": "Market-palce/marketPlaceItem1.sol:marketPlaceItem1",
						"label": "owner",
						"offset": 0,
						"slot": "2",
						"type": "t_address"
					},
					{
						"astId": 74,
						"contract": "Market-palce/marketPlaceItem1.sol:marketPlaceItem1",
						"label": "priceFeed",
						"offset": 0,
						"slot": "3",
						"type": "t_contract(AggregatorV3Interface)45"
					},
					{
						"astId": 80,
						"contract": "Market-palce/marketPlaceItem1.sol:marketPlaceItem1",
						"label": "USDCfToken",
						"offset": 0,
						"slot": "4",
						"type": "t_contract(IERC20)275"
					}
				],
				"types": {
					"t_address": {
						"encoding": "inplace",
						"label": "address",
						"numberOfBytes": "20"
					},
					"t_bool": {
						"encoding": "inplace",
						"label": "bool",
						"numberOfBytes": "1"
					},
					"t_contract(AggregatorV3Interface)45": {
						"encoding": "inplace",
						"label": "contract AggregatorV3Interface",
						"numberOfBytes": "20"
					},
					"t_contract(IERC20)275": {
						"encoding": "inplace",
						"label": "contract IERC20",
						"numberOfBytes": "20"
					},
					"t_mapping(t_address,t_bool)": {
						"encoding": "mapping",
						"key": "t_address",
						"label": "mapping(address => bool)",
						"numberOfBytes": "32",
						"value": "t_bool"
					},
					"t_uint256": {
						"encoding": "inplace",
						"label": "uint256",
						"numberOfBytes": "32"
					}
				}
			},
			"userdoc": {
				"kind": "user",
				"methods": {},
				"version": 1
			}
		}
	}
}